S01800006275696C642F6D6963617A2F6D61696E2E73726563E5
S11300000C9449010C9468010C9468010C946801E7
S11300100C9468010C9468010C9468010C946801B8
S11300200C9468010C9468010C9468010C946801A8
S11300300C9468010C9468010C9468010C946A0A8D
S11300400C94AF0A0C9468010C9488080C94680111
S11300500C94EF080C9468010C9468010C946801EA
S11300600C9468010C943A0A0C94190A0C94240A0E
S11300700C942F0A0C944D0A0C94FC090C946801FE
S11300800C940E0A0C9468010C9468010000211071
S1130090422063308440A550C660E77008812991EE
S11300A04AA16BB18CC1ADD1CEE1EFF13112100296
S11300B073325222B5529442F772D662399318833E
S11300C07BB35AA3BDD39CC3FFF3DEE36224433462
S11300D020040114E664C774A44485546AA54BB58E
S11300E028850995EEE5CFF5ACC58DD55336722636
S11300F011163006D776F6669556B4465BB77AA7DE
S113010019973887DFF7FEE79DD7BCC7C448E55881
S11301108668A7784008611802282338CCC9EDD92D
S11301208EE9AFF9488969990AA92BB9F55AD44AD5
S1130130B77A966A711A500A333A122AFDDBDCCB7D
S1130140BFFB9EEB799B588B3BBB1AABA66C877CA1
S1130150E44CC55C222C033C600C411CAEED8FFDCD
S1130160ECCDCDDD2AAD0BBD688D499D977EB66E75
S1130170D55EF44E133E322E511E700E9FFFBEEF1D
S1130180DDDFFCCF1BBF3AAF599F788F8891A981DF
S1130190CAB1EBA10CD12DC14EF16FE18010A100C9
S11301A0C230E3200450254046706760B9839893B9
S11301B0FBA3DAB33DC31CD37FE35EF3B102901219
S11301C0F322D2323542145277625672EAB5CBA585
S11301D0A89589856EF54FE52CD50DC5E234C32469
S11301E0A01481046674476424540544DBA7FAB759
S11301F09987B8975FE77EF71DC73CD7D326F236B9
S11302009106B01657667676154634564CD96DC9A4
S11302100EF92FE9C899E9898AB9ABA94458654808
S113022006782768C018E1088238A3287DCB5CDBF8
S11302303FEB1EFBF98BD89BBBAB9ABB754A545A58
S1130240376A167AF10AD01AB32A923A2EFD0FEDC4
S11302506CDD4DCDAABD8BADE89DC98D267C076CA8
S1130260645C454CA23C832CE01CC10C1FEF3EFF98
S11302705DCF7CDF9BAFBABFD98FF89F176E367EF8
S1130280554E745E932EB23ED10EF01E00081C181B
S1130290141011241FBECFEFD0E1DEBFCDBF11E09B
S11302A0A0E0B1E0E4E0F6E100E00BBF02C007909B
S11302B00D92A830B107D9F712E0A8E0B1E001C06F
S11302C01D92A431B107E1F70E945A070C94000B68
S11302D00C940000D89A0895D99A0895DA9A08954A
S11302E086B70895FC01218130E0908180E0282BBD
S11302F0392BC90108959FB7F89481E030917201B8
S113030020917301321380E09FBF08951092FB0186
S11303101092FA0184E0809330011092F50110925A
S113032003021092340110927D0110927C01089511
S1130330809108028F3F89F0282F30E0F901EA5DAF
S1130340FE4F9081909308029F3F11F490930F0207
S11303502A5D3E4F9FEFF901908308959FB7F8946B
S11303608CB95E9A9FBF089583B783BF00B600FC23
S1130370FDCF08950F931F931FB7F89402B70E94FF
S1130380700120911D0130911E0140911F01509177
S1130390200181FF0FC091B782B72F5F3F4F4F4FAE
S11303A05F4F290F311D411D511D280F311D411D66
S11303B0511D04C0200F311D411D511D1FBFB90126
S11303C0CA011F910F9108959FB7F894E82FF0E0A8
S11303D0EA5DFE4F20812F3F49F421E030E0409157
S11303E00F02481729F020E030E002C021E030E09D
S11303F02115310589F4209108022F3F19F48093C7
S1130400080206C0E0910F02F0E0EA5DFE4F80832F
S113041080930F0280E001C085E09FBF0895909112
S11304201701992399F5882389F581E080931701B1
S1130430809100018093180120910C012170209378
S11304402501809105019091060190931A018093F2
S1130450190180910D0180931B0131E0211130E0DD
S113046020910C01267EE32FF0E0EE0FFF1FEF5FDB
S1130470FE4F808191819093060180930501232B87
S113048020930C0185E00E94E401089580910C0101
S113049080FF02C08B7F01C08D7F80930C01089583
S11304A01F931FB7F89480910E02882339F40E9499
S11304B0E401882319F481E080930E021FBF1F9189
S11304C00895EF92FF920F931F937B018C0160912B
S11304D0890161FF8EC08091810190918201A09178
S11304E08301B0918401209185013091860140916E
S11304F0870150918801E81AF90A0A0B1B0BE216CE
S1130500F3060407150708F474C060FF04C06D7F88
S1130510609389010CC0820F931FA41FB51F8093A1
S1130520810190938201A0938301B093840180910F
S1130530090190910A01019690930A01809309019F
S113054020910801222309F054C080934A0190931A
S113055049018DE391E0FC0135962FEF218320932F
S1130560420129E8268322E024832091100130915E
S113057011012115310509F03CC02FB7F89435E07D
S1130580309313011092140190930F0180930E0184
S113059082E090E090931101809310011092160173
S11305A0109215018EE0809312012FBF8FB7F8943B
S11305B09091F3019A3011F48FBF17C08FBF9FB78A
S11305C0F89480913B01882331F481E080933B01CE
S11305D010923C0101C080E09FBF882331F00E944B
S11305E0500281E08093080104C01092110110921E
S11305F0100187E00E94E4011F910F91FF90EF909A
S11306000895CF92DF92EF92FF920F931F931FB73B
S1130610F89401B7C2B60E9470010C1511F081FF65
S113062002C01FBF6BC0809171018823D1F10E9469
S1130630BA012091F6013091F7014091F8015091EF
S1130640F901C0902101D0902201E0902301F090A3
S11306502401621B730B840B950B6C157D058E05B1
S11306609F0528F01092710186EE61E01EC0D7014B
S1130670C601820F931FA41FB51F20911D01309145
S11306801E0140911F0150912001821B930BA40B6A
S1130690B50B873E9105A105B10518F4823020F40D
S11306A002C086EE01C082E060E0782F715000B68F
S11306B001FCFDCF92B7791709F4782F80911D01C1
S11306C090911E01A0911F01B09120019C01AD01E8
S11306D02F5F3F4F4F4F5F4F270F311D411D511D5E
S11306E0281739074A075B0710F4782F709571BFF4
S11306F01FBF662319F086E00E94E4011F910F9149
S1130700FF90EF90DF90CF9008950F932093040211
S113071030930502409306025093070200932F0181
S1130720EFB7F894F1E0F09371016093F6017093E0
S1130730F7018093F8019093F901209321013093FC
S113074022014093230150932401EFBF0E9401032F
S11307500F9108958091F3018A3021F48091300142
S1130760843021F081E080930B01089582E00E949F
S1130770E40110920B010895ECE8F0E06927660F9C
S1130780F11DE60FF11DC895382F202D3196C8951F
S11307903025C90108950F931F93082F162F8091B8
S11307A03001813071F0813030F08230E1F18330FA
S11307B009F00EC14BC0002309F430C10E94860128
S11307C01DC1002309F02AC160930302862F8454BB
S11307D0823008F0FDC014C182E001C083E0809340
S11307E0300180910C01982F917080FF03C0869591
S11307F0869501C08695817009F0EAC080910C014C
S1130800992311F0846001C0826080930C0180916F
S11308100C01877E886080930C0110920D018FEF8C
S113082080930001FBC0002309F0D2C0609334011F
S113083080917C0190917D010E94BC0390937D0185
S113084080937C0183E080933001E8C08091F501BE
S11308508F3F09F4BDC0002309F456C0823008F468
S1130860B7C0E091FA01EE2311F0E15001C0E2E0DB
S1130870AE2FB0E0A650BE4F12968C911297382F2F
S113088020E0EE2311F0E15001C0E2E0F0E0E65098
S1130890FE4F428150E0422B532B20917C0130913A
S11308A07D014217530709F093C080E00E940F02B4
S11308B0809103028434D9F420913401E0917201CF
S11308C0309173018E2F8F5F863010F4982F01C002
S11308D090E0931761F0F0E0EE58FE4F228380938E
S11308E07201863010F0109272010E9450020E9430
S11308F0860180911C018D7F80931C0180910B01E6
S1130900882309F48BC072C0823008F44DC0E09192
S1130910FB01F0E0E650FE4F228130910C01932F51
S11309209695969596959370892F90E081309105D0
S113093021F08230910501F50FC0832F877E8061FD
S113094080930C01222311F080E001C085E08093A4
S11309500D012093000110C080910D01843360F4D7
S1130960E0910501F0910601E80FF11D20838091CB
S11309700D018F5F80930D0180917C0190917D0129
S11309802091FB01E22FF0E0E650FE4F62812F5FE1
S11309902093FB01233010F01092FB010E94BC0352
S11309A090937D0180937C018091FA01E82FF0E01F
S11309B0E650FE4F12838F5F8093FA01833010F06C
S11309C01092FA018091F5018F5F8093F50126C0A2
S11309D00E94860180911C018D7F80931C0181E01F
S11309E00E940F0280910B01882331F084E08093F0
S11309F030010E94AA0312C0002381F081E023CFBA
S1130A0080917C0190917D010E94BC0390937D01B3
S1130A1080937C01143409F0E1CEDECE1F910F9156
S1130A20089580913701909138010097F9F421E0FD
S1130A3030E030930202209301028EE291E0909321
S1130A40380180933701109232011092310181E014
S1130A50809333015E9A569A80912E01309332012D
S1130A60209331010E94AE0180E0089585E008954D
S1130A709FB7F89480911C018E7F80931C018EE7B0
S1130A8080932E019FBF0E9411050895CF92DF929B
S1130A90EF92FF920F931F93DF93CF930F92CDB7F3
S1130AA0DEB7833009F40AC1843038F4813009F4A4
S1130AB0D3C0823008F0FEC00DC0853009F41FC1D8
S1130AC0853008F4FEC0863009F464C1873009F02B
S1130AD0C5C189C13FB7F89410920E029091F301F9
S1130AE081E0983009F080E021E0993009F020E0BD
S1130AF0882311F4222351F01092F301E091800134
S1130B00F0E0EE0FFF1FE75CFE4F10823FBF88232B
S1130B1011F4222309F12FB7F89490910B029F5FEF
S1130B2090930B0290913601933471F48091730188
S1130B3090917201981761F08F5F809373018630F2
S1130B4038F01092730104C001E0082791E002C05C
S1130B5090E000E02FBF04C0992309F054C000E0E6
S1130B602FB7F89480910B012FBF882339F08FB7EA
S1130B70F8942AE02093F3018FBF39C08FB7F8941B
S1130B80E090390110913B018FBF99830E947B0152
S1130B9099818823F1F4EE20E1F41FB7F89482E000
S1130BA08093390199830E947B019981882339F4C8
S1130BB0E0917301F0E0EE58FE4F828101C080E0C5
S1130BC080933A0183E480933601109280011FBF21
S1130BD00CC01150123058F48FB7F89425E42093C8
S1130BE0360121E0209380018FBF11E001C010E0A5
S1130BF0992351F08FB7F894009314018FBF84E0C8
S1130C000E94E40101C010E00FB7F8948091F30151
S1130C108A3021F40E94AA030FBF20C10FBF112301
S1130C2009F41CC18FB7F8941092110210921002AB
S1130C301092350191E09093F3018FBF0E94380523
S1130C40882309F40BC18FB7F89499E09093F301CA
S1130C508FBF0E94500202C1569857981092F20119
S1130C6010923301539A549A579A8FB7F89410926A
S1130C70F301109230018FBF0E94BA016093810189
S1130C8070938201809383019093840188EE93E0B2
S1130C90A0E0B0E08093850190938601A093870142
S1130CA0B0938801809189018E7F8260809389014D
S1130CB087E001C083E00E94E401D0C053985498B7
S1130CC0CDC010921101109210018FB7F8948FBF0C
S1130CD090910E0180910F0120911601222309F0B9
S1130CE0BDC0E92FF82F8385893809F0B7C081E0AA
S1130CF0ED33F80709F0B2C010920801AFC02FB766
S1130D00F89490911801C0901901D0901A01809123
S1130D101B01E09025012FBF992329F58C50F60182
S1130D209385993801F58230F1F48601045F1F4FF1
S1130D30C8010E94720180FF02C0DA9802C00E94BA
S1130D406E01C8010E94720181FF02C0D99802C0DD
S1130D500E946C01C8010E94720182FF02C0D898EF
S1130D6002C00E946A019FB7F894EE2DF0E0EE0FE6
S1130D70FF1FEF5FFE4FD182C08280910C01EE20F5
S1130D8011F08B7F01C08D7F80930C0110921701AD
S1130D909FBF64C080912F01882311F5EFB7F894A9
S1130DA0609121017091220180912301909124018D
S1130DB02091F6013091F7014091F8015091F90129
S1130DC0620F731F841F951FEFBF2091040230919F
S1130DD00502409106025091070200E00E9485033B
S1130DE00E94BA012EC00E94BA012FB7F894109243
S1130DF071012FBF2091890121FF30C02091810111
S1130E003091820140918301509184017B018C01D6
S1130E10E21AF30A040B150B209185013091860127
S1130E2040918701509188012E193F09400B510BC5
S1130E302F3FFFEF3F07FFEF4F07FFE75F0741F447
S1130E400DC00E9461020AC001E00E94850306C031
S1130E501216130614061506BCF3F3CF0F90CF91A8
S1130E60DF911F910F91FF90EF90DF90CF90089545
S1130E700E9498018F3F21F00E94460581E0089569
S1130E8080E00895982F9D57923050F490911C0162
S1130E90916090931C0190E298279093F4018DE760
S1130EA080932E010E94110508958FB7F894089538
S1130EB08FBF0895FF920F931F93FFB6F89486E2B5
S1130EC091E06FEF70E048E050E00E94F90A8FEF84
S1130ED08093080280930F0281E08EBD88E080BF7A
S1130EE083E083BF8CB59DB54AE701C0C9012CB529
S1130EF03DB52817390708F441504423B9F782B7A0
S1130F0092B79817E9F32CB53DB582B792B7981705
S1130F10E9F38CB59DB54096821B930B65E09695DD
S1130F2087956A95E1F790930A028093090213BEAC
S1130F3083B78EBD8EB580BF12BE1DBC1CBC8FEFA7
S1130F4086BF86B780937C0080B790E087709070EE
S1130F500097D1F715BA8FEF84BBD498DC98109220
S1130F6089001092880080917D00846080937D00C8
S1130F7080918A00887F826080938A00D29AD19A75
S1130F80D09A0E946E010E946C010E946A010E9424
S1130F9038078823E1F780B7886080BF8BE083BF80
S1130FA086EE81BF87B7826087BF0E94010302E09B
S1130FB016E06091090270910A0280E090E05CE022
S1130FC0660F771F881F991F5A95D1F720E031EEDD
S1130FD040E050E00E94D70A2150304029B93093B4
S1130FE090000BB9109395001AB820939900309390
S1130FF0980000939B0010939D0010929A0084E443
S113100090E0909300028093FF01109239011092B6
S11310103B018AE08093F30110923501109236016E
S113102010920B02109211021092100210920E02F2
S1131030109280010E948601109273011092720135
S11310400E9438078823E1F7FFBE78948FB7F8949D
S11310509091F3019A3031F090913001943011F075
S11310608FBF04C08FBF81E00E94E4011FB7F894D2
S113107046C087B7887BA1F480917D008B7F81F483
S11310806E990EC09AB180919A00892B887141F4AF
S11310908091740082FD04C0379B04C021E003C02A
S11310A020E001C025E087B790E08370907000973E
S11310B079F080B790E0877090700097D1F781B78E
S11310C092B7891B8C3030F082B7853F28F002C07C
S11310D0E5E003C0E2E001C0E3E085B72E1708F4C1
S11310E0E22FF0E0E457FD4FE491837C80628E2B85
S11310F085BF78948895F89485B78F7D85BF0E94C5
S113110098018F3F09F4B5CF1FBF0E944605AECFAB
S11311101F920F920FB60F920BB60F9211242F93BA
S11311203F934F935F936F937F938F939F93AF936B
S1131130BF93EF93FF935F9B3FC06CB120917E01FF
S113114030917F012115310501F180910C029091BC
S11311500D02280F391FF9016083019690930D0247
S113116080930C022091120230911302821793078C
S113117018F110927F0110927E018091F201833068
S1131180D9F057981092F20117C06E3719F481E024
S113119060E010C080911C016D3721F4826080935F
S11311A01C010AC081FF05C08D7F80931C0180E271
S11311B0682780E00E94CB03FF91EF91BF91AF912C
S11311C09F918F917F916F915F914F913F912F915B
S11311D00F900BBE0F900FBE0F901F901895789430
S11311E01F920F920FB60F920BB60F921124FF921B
S11311F00F931F932F933F934F935F936F937F931B
S11312008F939F93AF93BF93CF93DF93EF93FF930A
S113121020913101309132018091010290910202BA
S11312202817390780F4E0913701F0913801E20F73
S1131230F31F80812F5F3F4F3093320120933101A0
S11312400E94AE01C1C01092380110923701109271
S1131250330156981FB7F89480911C0180FF0AC08F
S11312608E7F80931C018091F40180932E010E9453
S11312701105A9C08091F301843009F486C085303A
S113128040F4823011F18330A8F5813009F096C022
S11312900DC0863009F487C0863008F47DC08730DD
S11312A009F488C0883009F089C08BC08091360168
S11312B00E944207082F83E08093F301809110027B
S11312C090911102609136010EC080910B020E9430
S11312D04207082F83E08093F301809110029091DC
S11312E0110260910B020E94BC039093110280933F
S11312F0100262C0E0918001F0E0EE0FFF1FE65C97
S1131300FE4F80810E944207082FF0908001CF2D6C
S1131310D0E0FE01EE0FFF1FE65CFE4F809110024D
S11313209091110260810E94BC03909311028093FA
S11313301002809135018F5F809335019F2D91308C
S113134011F520911301E0910E01F0910F01E20FCC
S1131350F11D90812F5F20931301309112013217F8
S113136020F492E090933B0190E0CC0FDD1FFE014E
S1131370E75CFE4F2081223031F08F3F21F0C65CC4
S1131380DE4F988319C084E012C0809110020E943D
S11313904207082F85E00BC0809111020E9442078A
S11313A0082F86E004C00E943805082F87E0809348
S11313B0F30102C088E003C0002329F089E0809390
S11313C0F3010E9450021FBFFF91EF91DF91CF9173
S11313D0BF91AF919F918F917F916F915F914F9149
S11313E03F912F911F910F91FF900F900BBE0F9083
S11313F00FBE0F901F9018951F920F920FB60F9269
S113140011248F9380919B0087FF02C080919C00E0
S11314108F910F900FBE0F901F90189578941F9284
S11314200F920FB60F9211240F900FBE0F901F90C2
S1131430189578941F920F920FB60F9211240F9063
S11314400FBE0F901F90189578941F920F920FB6AD
S11314500F9211240F900FBE0F901F90189578943F
S11314601F920F920FB60F9211240F900FBE0F9080
S11314701F90189578941F920F920FB60F92112413
S11314808F939F9380918000909181009F918F9181
S11314900F900FBE0F901F90189578941F920F9283
S11314A00FB60F9211242F938F939F932FB7F89415
S11314B080917A0190917B01019690937B018093B6
S11314C07A012FBF9F918F912F910F900FBE0F9094
S11314D01F9018951F920F920FB60F920BB60F9292
S11314E011242F933F934F935F936F937F938F9325
S11314F09F93AF93BF93EF93FF930E94B40121B7DF
S113150030E02F5F3F4F40E050E080911D0190910B
S11315101E01A0911F01B0912001820F931FA41FEF
S1131520B51F80931D0190931E01A0931F01B093DA
S1131530200178940E940103FF91EF91BF91AF9134
S11315409F918F917F916F915F914F913F912F91D7
S11315500F900BBE0F900FBE0F901F9018951F9207
S11315600F920FB60F920BB60F9211242F933F9345
S11315704F935F936F937F938F939F93AF93BF9397
S1131580EF93FF930E94B401FF91EF91BF91AF914C
S11315909F918F917F916F915F914F913F912F9187
S11315A00F900BBE0F900FBE0F901F901895A1E2E5
S11315B01A2EAA1BBB1BFD010DC0AA1FBB1FEE1FC9
S11315C0FF1FA217B307E407F50720F0A21BB30B14
S11315D0E40BF50B661F771F881F991F1A9469F790
S11315E060957095809590959B01AC01BD01CF01EC
S11315F00895DC0101C06D9341505040E0F7089517
S1071600F894FFCF88
S10B1604FF8A01BE018A010006
S9030000FC
