S01800006275696C642F6D6963617A2F6D61696E2E73726563E5
S11300000C945E010C94FC180C9406190C941019B1
S11300100C941A190C9424190C942E190C94381954
S11300200C9473190C947D010C947D010C94A2170B
S11300300C94FE160C948C170C94DF180C949116E7
S11300400C94D6160C947D190C94E2190C947D0131
S11300500C94491A0C947D010C947D010C947D013F
S11300600C9497170C94941B0C94731B0C947E1B88
S11300700C94891B0C94A71B0C94561B0C947D01A7
S11300800C94681B0C947D010C947D01EC0D8A0E7C
S1130090200F640F680FB20FCB0FD00F0110B110F7
S11300A0CA10DD1021124A128012A31265137813AC
S11300B07A137D13BA130000211042206330844068
S11300C0A550C660E770088129914AA16BB18CC123
S11300D0ADD1CEE1EFF13112100273325222B5529A
S11300E09442F772D662399318837BB35AA3BDD373
S11300F09CC3FFF3DEE36224433420040114E6646A
S1130100C774A44485546AA54BB528850995EEE5C2
S1130110CFF5ACC58DD55336722611163006D77679
S1130120F6669556B4465BB77AA719973887DFF712
S1130130FEE79DD7BCC7C448E5588668A778400841
S1130140611802282338CCC9EDD98EE9AFF9488962
S113015069990AA92BB9F55AD44AB77A966A711AD9
S1130160500A333A122AFDDBDCCBBFFB9EEB799BB2
S1130170588B3BBB1AABA66C877CE44CC55C222C29
S1130180033C600C411CAEED8FFDECCDCDDD2AAD02
S11301900BBD688D499D977EB66ED55EF44E133EB9
S11301A0322E511E700E9FFFBEEFDDDFFCCF1BBF52
S11301B03AAF599F788F8891A981CAB1EBA10CD12C
S11301C02DC14EF16FE18010A100C230E320045034
S11301D0254046706760B9839893FBA3DAB33DC3A7
S11301E01CD37FE35EF3B1029012F322D232354284
S11301F0145277625672EAB5CBA5A89589856EF537
S11302004FE52CD50DC5E234C324A01481046674D3
S1130210476424540544DBA7FAB79987B8975FE786
S11302207EF71DC73CD7D326F2369106B016576623
S11302307676154634564CD96DC90EF92FE9C8990E
S1130240E9898AB9ABA94458654806782768C01873
S1130250E1088238A3287DCB5CDB3FEB1EFBF98BE6
S1130260D89BBBAB9ABB754A545A376A167AF10AC3
S1130270D01AB32A923A2EFD0FED6CDD4DCDAABDF6
S11302808BADE89DC98D267C076C645C454CA23C13
S1130290832CE01CC10C1FEF3EFF5DCF7CDF9BAFC6
S11302A0BABFD98FF89F176E367E554E745E932E63
S11302B0B23ED10EF01E00081C18141011241FBEEB
S11302C0CFEFD0E1DEBFCDBF11E0A0E0B1E0E0E8C8
S11302D0FBE300E00BBF02C007900D92AC31B10705
S11302E0D9F717E0ACE1B1E001C01D92A83DB10718
S11302F0E1F70E9453140C94BE1D0C9400009FB7A8
S1130300F8948BB321E082278BBB9FBF08959FB7DE
S1130310F89481E03091DC012091DD01321380E01A
S11303209FBF0895362F272FFC0143835283618397
S11303307083BA01832F922F0895FC01918180E08C
S1130340208130E0282B392BC90108959FB7F894F8
S113035080936C029FBF0895282F9FB7F89481E083
S113036030916C02321380E09FBF089580910501A3
S1130370882339F481E090912101923019F080E0D2
S1130380089580E00895C0980895B89A08958FB7A5
S1130390F89410926B028FBF08959FB7F89481E090
S11303A020916B02211180E09FBF089586B70895C4
S11303B0882311F06E9A08956E980895C09A08954E
S11303C087B78F7E87BF08954FB7F8942091E601D1
S11303D03091E7018CB59DB556B752FF04C02F5F2D
S11303E03F4F8CB59DB54FBF40E050E0A901332786
S11303F02227A0E0B0E0282B392B4A2B5B2BB90134
S1130400CA0108956F927F928F929F92AF92BF928A
S1130410CF92DF92EF92FF920F931F93A0909E01D1
S1130420B0909F01C090A001D090A1019501A601B8
S113043060E070E080E090E0FEE4AF2EE3E8BE2EE2
S1130440CC24DD24EE24FF2400E010E00E94C41B31
S113045039014A0100E20E948E1C59016A01A4017B
S1130460930156954795379527952A0D3B1D4C1DAD
S11304705D1D57FF05C05F772F5F3F4F4F4F5F4FA5
S113048020939E0130939F014093A0015093A101BA
S1130490C9011F910F91FF90EF90DF90CF90BF9013
S11304A0AF909F908F907F906F900895DE9A0895FB
S11304B0DE98089589B78F7B89BF089587B78F7DAC
S11304C087BF0895DF93CF93CDB7DEB728970FB6D4
S11304D0F894DEBF0FBECDBF20E032E14DE65CE410
S11304E06FE470E0809101019091000128960FB6AD
S11304F0F894DEBF0FBECDBFCF91DF910895109267
S11305005D0710925C0784E0809394011092650269
S113051010926507109298011092E9011092E80177
S113052008958091BF078F3F89F0282F30E0F901AB
S1130530E45AFE4F90819093BF079F3F11F490932C
S1130540D107245A3E4F9FEFF9019083089583B752
S113055083BF00B600FCFDCF0895FC01238130E089
S113056040E050E0808190E0A0E0B0E0B82FAA27FE
S113057099278827282B392B4A2B5B2B618170E024
S113058080E090E0CB0177276627262B372B482B7A
S1130590592B828190E0A0E0B0E0BA2FA92F982FC8
S11305A08827282B392B4A2B5B2BB901CA010895C4
S11305B081E0849B80E00895882311F06F9A089568
S11305C06F9808959FB7F8948CB95E9A9FBF089569
S11305D09FB7F894E82FF0E0E45AFE4F20812F3FB4
S11305E049F421E030E04091D107481729F020E098
S11305F030E002C021E030E02115310589F420917A
S1130600BF072F3F19F48093BF0706C0E091D107BD
S1130610F0E0E45AFE4F80838093D10780E001C06C
S113062085E09FBF089590913401992399F588231B
S113063089F581E08093340180910C018093350128
S113064020912901217020935A01809111019091E8
S11306501201909337018093360180912A0180938F
S1130660380131E0211130E020912901267EE32F69
S1130670F0E0EE0FFF1FE35FFE4F808191819093C6
S1130680120180931101232B2093290184E10E94FC
S1130690E80208958091290180FF02C08B7F01C088
S11306A08D7F809329010895809162028A3021F41C
S11306B080919401843021F081E080932801089591
S11306C081E10E94E8021092280108951F931FB748
S11306D0F8948091CD07882341F48FE00E94E802CA
S11306E0882319F481E08093CD071FBF1F910895DB
S11306F0EF92FF92CF93DF93E82EE7017E01F92E6C
S1130700E701C70101960E949D01E92FE695E69550
S1130710F0E0E370F070EE0FFF1FED5EFE4F2081FE
S11307203181892F829586958695837090E08430F7
S1130730910540F4FC01EE0FFF1FED5EFE4F80813A
S1130740918102C08CE99FEF280F391F2A5F3F4F28
S11307502C0F3D1FC901DF91CF91FF90EF900895B9
S11307601F93182F81E00E94D8011FB9779BFECFF9
S11307708FB11F910895EF92FF920F931F93182F3B
S1130780062FE72EFFB6F8940E94CD01882319F0B6
S1130790FFBE80E00AC0FFBE812F0E94B0038E2DF1
S11307A00E94B003802F0E94B0031F910F91FF900D
S11307B0EF900895CF92DF92EF92FF920F931F93E1
S11307C0CF93DF934FB7F8940091C9071091CA07EC
S11307D0E0905F02F0906002C091E401D091E501E5
S11307E020913D0130913E01CE010A962817390728
S11307F008F4C9014FBF6C010894C108D10813C0A3
S11308000115110529F0F801EC0FFD1F808101C0CD
S113081080E00E94B003E114F10421F0F701EC0F31
S1130820FD1F80832196CC15DD0550F381E00E94E5
S1130830DC028FB7F8940115110531F0F801EC0FC3
S1130840FD1F90819FB901C01FB8D093E501C093EB
S1130850E4018FBF80E0DF91CF911F910F91FF9052
S1130860EF90DF90CF9008952FB7F89450933E0106
S113087040933D019093CA078093C9077093600227
S113088060935F021092E5011092E4012FBF4115BD
S1130890510521F08FB10E94DA03089589E00E9486
S11308A0E80280E008950F931F93CF93DF93EC0148
S11308B0062F1FB7F8940E94CD01882319F01FBF9B
S11308C010E012C01FBF8FE790E09093B8018093AF
S11308D0B7018FE70E94B003182F80E090E0BE01BB
S11308E0402F50E00E943404812FDF91CF911F915B
S11308F00F9108950F931F93CF93DF93C0919C01A1
S1130900D0919D011AA5112309F41FE10E94C3018E
S113091080917601811739F0612F70E0606E706804
S113092085E10E94BB031093760108811FB7F894F8
S11309300E94CD01882311F01FBF12C01FBF8EE398
S113094090E09093B8018093B7018EE30E94B003C6
S1130950402F4150CE0160E070E050E00E9434042A
S1130960DF91CF911F910F9108958FB7F894109252
S11309706D028FBF08950F931F931FB7F89402B7AA
S11309800E94D601209140013091410140914201E1
S11309905091430181FF0FC091B782B72F5F3F4F42
S11309A04F4F5F4F290F311D411D511D280F311D20
S11309B0411D511D04C0200F311D411D511D1FBF7C
S11309C0B901CA011F910F910895EF92FF920F93FD
S11309D01F937B018C016091F60161FF2BC0809114
S11309E0EE019091EF01A091F001B091F1012091FD
S11309F0F2013091F3014091F4015091F501E81AAC
S1130A00F90A0A0B1B0BE216F3060407150790F00C
S1130A1060FF04C06D7F6093F6010CC0820F931FCA
S1130A20A41FB51F8093EE019093EF01A093F001F2
S1130A30B093F1018DE00E94E8021F910F91FF90A5
S1130A40EF900895CF92DF92EF92FF920F931F934E
S1130A501FB7F89401B7C2B60E94D6010C1511F065
S1130A6081FF02C01FBF6BC08091DB018823D1F1DD
S1130A700E94BB0420916702309168024091690290
S1130A8050916A02C0905501D0905601E0905701F0
S1130A90F0905801621B730B840B950B6C157D054C
S1130AA08E059F0528F01092DB0186EE61E01EC0E2
S1130AB0D701C601820F931FA41FB51F20914001C7
S1130AC0309141014091420150914301821B930BAB
S1130AD0A40BB50B873E9105A105B10518F482302E
S1130AE020F402C086EE01C082E060E0782F7150ED
S1130AF000B601FCFDCF92B7791709F4782F8091E5
S1130B00400190914101A0914201B09143019C01A7
S1130B10AD012F5F3F4F4F4F5F4F270F311D411DD9
S1130B20511D281739074A075B0710F4782F709571
S1130B3071BF1FBF662319F08CE00E94E8021F9169
S1130B400F91FF90EF90DF90CF9008950F93209333
S1130B5066073093670740936807509369070093CB
S1130B607501EFB7F894F1E0F093DB01609367024D
S1130B70709368028093690290936A0220935501EE
S1130B80309356014093570150935801EFBF0E9490
S1130B9022050F91089580912001882309F04BC00C
S1130BA0809102018F3F09F046C00E94CD01882345
S1130BB009F441C081E08093EA0480915B018823B9
S1130BC011F01092EA048091EA048823B1F10E94A2
S1130BD0B601882311F00E94DE0180912101823048
S1130BE071F580910501882361F5209103012F3F60
S1130BF0D1F0822F90E0FC01E555FE4F3081309317
S1130C0003013F3F11F43093040185559E4F3FEF9C
S1130C10FC0130832093050181E0809321018AE067
S1130C200E94E80204C0209305011092210180E093
S1130C300E94D80104C081E0089585E0089580E011
S1130C40089580E008951F931FB7F89490910201CE
S1130C50981719F01FBF81E033C08FEF8093020112
S1130C60E0912001EE2329F080E0F5E02E2F30E022
S1130C7005C00E94C7010E94CB051CC06F2F0E94B3
S1130C80FF1CA901092E02C0559547950A94E2F765
S1130C9040FF13C09093020121E030E002C0220F14
S1130CA0331F9A95E2F720952E232093200188E0A4
S1130CB00E94E8021FBF80E003C0892F8F5FDECF50
S1130CC01F91089584E00E942306089583E00E9402
S1130CD0230680E008950E94C30180913A01909117
S1130CE03B0161E00E945304089580E88093590118
S1130CF0109293011092C3071092BE0710927801CC
S1130D0008950F931F93082F1FB7F8940E94CD01E5
S1130D10882319F01FBF80E004C01FBF802F0E94EA
S1130D20B0031F910F91089589E00E9481060895F0
S1130D30FC0115A68E9640E050E060E070E80E9449
S1130D4092010895EF92FF920F931F930E94E40182
S1130D507B018C012091AD013091AE014091AF0136
S1130D605091B0018091A7019091A801A091A9018F
S1130D70B091AA01820F931FA41FB51FE216F306B8
S1130D800407150730F082179307A407B50758F036
S1130D9005C082179307A407B50790F5E816F9066E
S1130DA00A071B0768F59C01AD012E193F09400B8A
S1130DB0510B213060E8360760E0460760E05607D3
S1130DC010F1D801C70180509048AF4FBF4F8093B6
S1130DD0AD019093AE01A093AF01B093B001205048
S1130DE03048404050402093A7013093A8014093DD
S1130DF0A9015093AA0120E030E840E050E013C07C
S1130E0020E030E0A9018093AD019093AE01A0935E
S1130E10AF01B093B0011092A7011092A8011092F3
S1130E20A9011092AA018CB59DB50396AC014E1987
S1130E305F094217530718F4C9018E0D9F1D0097CF
S1130E4011F481E090E001979BBD8ABD80E186BFEB
S1130E5087B7806187BF1F910F91FF90EF9008952E
S1130E60DF92EF92FF920F931F937B018C010E94FC
S1130E70E401DFB6F8946093AD017093AE01809302
S1130E80AF019093B001E092A701F092A801009302
S1130E90A9011093AA010E94A206DFBE1F910F911F
S1130EA0FF90EF90DF9008951F931FB7F8940E946E
S1130EB0020266E470E00E940B1D0B969093CF072C
S1130EC08093CE07BC0180E090E00E9430071FBFF2
S1130ED01F9108958FB7F8946091E9048FBF85E05E
S1130EE0689FB0011124625D7E4F706488E10E94A6
S1130EF0BB0308951F931FB7F8948091770188234B
S1130F0031F061E070E08091C807882311F460E05B
S1130F1070E0762F6627770F770F770F80919B010C
S1130F20882331F081E090E020917002222311F4B3
S1130F3080E090E0626E726224E0880F991F2A9527
S1130F40E1F7682B792B81E10E94BB031FBF1F913E
S1130F500895CF92DF92EF92FF920F931F93DF9346
S1130F60CF930F92CDB7DEB76C018A01F22EEFB6A4
S1130F70F89469830E94CD016981882319F0EFBE3A
S1130F8080E01DC0EFBEC60ED11C8C2D80680E946F
S1130F90B003E82EC60196958795807C0E94B00325
S1130FA0CF2CDD2409C0F601EF19F109E00FF11F80
S1130FB080810E94B003FA94FF20A9F78E2D0F9030
S1130FC0CF91DF911F910F91FF90EF90DF90CF9021
S1130FD00895DF93CF93CDB7DEB72C970FB6F8946F
S1130FE0DEBF0FBECDBF9FB7F894DE011196E1E7D7
S1130FF0F2E088E001900D928150E1F7209199018F
S113100080919A0129878A872091B1018091B20148
S11310102B878C879FBF80E691E060E0AE014F5F35
S11310205F4F2CE00E94A9072C960FB6F894DEBF00
S11310300FBECDBFCF91DF910895DF93CF930F9271
S1131040CDB7DEB789830E945E0290E296BF8981A4
S1131050882319F08EB5806402C08EB58F7B8EBD57
S113106087B7806287BF80E00F90CF91DF910895AA
S113107081E00E941D080895E6EBF0E06927660F01
S1131080F11DE60FF11DC895382F202D3196C89516
S11310903025C90108950F931F93082F162F8091AF
S11310A09401813071F0813030F08230E1F183308D
S11310B009F00EC14BC0002309F430C10E947F0225
S11310C01DC1002309F02AC160936507862F84544B
S11310D0823008F0FDC014C182E001C083E0809337
S11310E0940180912901982F917080FF03C0869507
S11310F0869501C08695817009F0EAC08091290126
S1131100992311F0846001C0826080932901809149
S11311102901877E88608093290110922A018FEF2C
S113112080930C01FBC0002309F0D2C060939801A6
S11311308091E8019091E9010E943C089093E901B3
S11311408093E80183E080939401E8C08091650274
S11311508F3F09F4BDC0002309F456C0823008F45F
S1131160B7C0E0915C07EE2311F0E15001C0E2E06A
S1131170AE2FB0E0A45AB84F12968C911297382F24
S113118020E0EE2311F0E15001C0E2E0F0E0E45A87
S1131190F84F428150E0422B532B2091E8013091CB
S11311A0E9014217530709F093C080E00E9413033A
S11311B0809165078434D9F420919801E091DC0191
S11311C03091DD018E2F8F5F863010F4982F01C08F
S11311D090E0931761F0F0E0E452FE4F2283809395
S11311E0DC01863010F01092DC010E9466030E943C
S11311F07F02809139018D7F80933901809128018C
S1131200882309F48BC072C0823008F44DC0E09189
S11312105D07F0E0E45AF84F228130912901932FC1
S11312209695969596959370892F90E081309105C7
S113123021F08230910501F50FC0832F877E8061F4
S113124080932901222311F080E001C085E080937E
S11312502A0120930C0110C080912A01843360F488
S1131260E0911101F0911201E80FF11D20838091AA
S11312702A018F5F80932A018091E8019091E9010E
S113128020915D07E22FF0E0E45AF84F62812F5F6E
S113129020935D07233010F010925D070E943C08F4
S11312A09093E9018093E80180915C07E82FF0E0D6
S11312B0E45AF84F12838F5F80935C07833010F0F9
S11312C010925C07809165028F5F8093650226C04F
S11312D00E947F02809139018D7F8093390181E0E2
S11312E00E94130380912801882331F084E08093C5
S11312F094010E94540312C0002381F081E023CFA3
S11313008091E8019091E9010E943C089093E901E1
S11313108093E801143409F0E1CEDECE1F910F91E1
S1131320089580E00E94D801BA9ABB98B99A0E94A5
S1131330C5016C9A80E00E94DC026B986A9881E097
S11313400E94D801709A8DB18C7F8DB908959FB792
S1131350F89480931C019FBF84E00E94E8020895E2
S11313601F93182F21E030E03093230120932201B2
S113137010925B010E94CB05812F0E94A7091F9147
S113138008950F931F931FB7F894809122019091B1
S113139023018830910589F40E9494060E94660610
S11313A00E94DE0181E090E090932301809322016A
S11313B083E00E94A7091FBF2FC00E94C301809130
S11313C0D207882311F085E001C084E00E948106E1
S11313D083FD05C080E00E94810683FD04C001E016
S11313E083E090E003C000E085E090E09093230167
S11313F0809322010E94DE011FBF002339F0109266
S11314003F010E9466060E94540706C060E471E032
S113141080E090E00E9430071F910F9108956623A9
S113142019F00E947F011EC05FB7F8944091D7075E
S1131430E42FF0E0EE0FFF1FED53FE4F20813181CA
S11314408217930771F4842F8F5F8093D7078C30B2
S113145010F01092D70780915301882311F0109255
S113146053015FBF81E00E94E8020895FF920F9349
S11314701F93DF93CF9300D0CDB7DEB7FFB6F894B8
S11314802091A301222329F52091540130E0F90190
S1131490EE0FFF1FE758FE4F008111818083918377
S11314A0C90101966CE070E00E941F1D80935401F5
S11314B090916302981719F481E08093A3018091BD
S11314C0C407882371F40E94E80281E08093C40772
S11314D008C089839A830E947F018981082F9A8199
S11314E0192FFFBEC8010F900F90CF91DF911F916C
S11314F00F91FF9008959FB7F894E82FF0E0E55915
S1131500FD4F8081882321F481E0808380E001C045
S113151081E09FBF08950F931F93182F0FB7F8947E
S113152080E00E947B0A8823B1F5109302010E9497
S1131530B601882311F088E00AC080912101882334
S113154049F481E080932101109205018AE00E9410
S1131550E8022DC08091AB018F3F49F481E090E017
S113156020910401222329F080E090E002C081E070
S113157090E00097E1F4809103018F3F19F41092F9
S1131580030106C0E0910401F0E0E555FE4F10822E
S1131590109204010CC021E030E002C0220F331F7E
S11315A01A95E2F780912001822B809320010FBFCE
S11315B080E01F910F9108950F931F93082F1FB779
S11315C0F89480E00E947B0A882319F01FBF85E00D
S11315D01BC00E94B601882379F4809121018823DD
S11315E079F482E080932101109205010E9491090F
S11315F00E94C5010E94C3010093020180E003C060
S11316000E94C70181E01FBF1F910F91089582E0DE
S113161090E0909372018093710181E08093930133
S113162080910201843029F084E00E94DC0A88233E
S113163019F40E946B06089584E00E948B0A0895B1
S11316401F931FB7F89480917101909172010097D4
S1131650D1F01092930180917801882311F0B79909
S113166004C00E9908C0882319F081508093780132
S11316700E94070B0AC081E090E09093720180936E
S11316807101109278010E9462061FBF1F91089594
S11316900E9475060E94DE010E94C30188E00E9438
S11316A0810688E00E9481060E94DE010E94620693
S11316B00E94200B0895EF92FF920F931F93CF93F4
S11316C0DF938C018091B70186FF51C18F7B8F33EB
S11316D009F090C1C0913A01D0913B0148814093F7
S11316E0730180917101909172018530910509F423
S11316F044C08630910509F492C08230910509F006
S11317002FC185E090E09093720180937101509114
S11317105901242F30E0852F90E02817390754F51C
S1131720B79907C00E9905C0842F8095850F8093C3
S113173059014A32F8F44423B1F0BE016F5F7F4F80
S1131740483028F080E090E047E050E009C086E0AF
S113175090E0909372018093710180E090E050E0FA
S11317600E94340447C1109293010E94DE010E943A
S11317706206F3C00E94480B3DC186E090E090935E
S113178072018093710180919B01882309F440C008
S1131790809170028823E1F58E010F5F1F4FC8010D
S11317A00E949D0185FF34C0B6E0EB2EF12CEC0EB7
S11317B0FD1EC7010E949D014FB7F8942091B1010D
S11317C03091B2014FBF8217930739F0C7010E94CD
S11317D09D012FEF8F3F9207D9F4C8010E949D010C
S11317E0877090708130910599F40E94DE010E9407
S11317F0C3018AE00E9481060E94DE010E94C301A7
S1131800609173016750CE0108960E945304F2C0A0
S1131810BE01685F7F4F4091730147509ECF0E9485
S1131820DE0180917801882311F40E946206809180
S11318307801882311F0B7990AC00E9B08C08091E3
S1131840BE07882321F0909173019B3038F4809176
S11318503A0190913B010E9498062FC08130A1F477
S113186080913A0190913B01E091C307F0E0EE0FC3
S1131870FF1FEE0FFF1FE659F84F4081518162812F
S113188073818E960E9492018091C30790E0019625
S1131890877090708093C3078091BE0781508093B6
S11318A0BE07882351F080913A0190913B010E9438
S11318B098061092C3071092BE0780917301FE012F
S11318C0E80FF11D808187FF48C00115110509F457
S11318D044C0CE0101960E949D01877030913A0167
S11318E020913B01823099F5E0919C01F0919D019A
S11318F0309799F1809122019091230187309105CD
S113190061F5832FEC017E01F22EE70193818B8137
S1131910981719F50E94E001A0919C01B0919D01D6
S11319209D01285D3F4F888191E0F9019483C80FA0
S1131930D11DCE010197FC01808198968C938881FA
S11319408F77F901818380E00E94B00906C081305D
S113195021F48BE00E94E8024DC00E94200B4AC093
S1131960109293010E94DE010E94620643C08E33EE
S113197009F040C00E94DE01809122019091230170
S11319808830910591F40E94C3010E9494060E943C
S1131990DE010E94660681E090E09093230180932B
S11319A0220183E00E94A70925C08091D2078823E1
S11319B049F484E090E090932301809322010E94F3
S11319C0C10918C00E94660683E090E09093230149
S11319D0809322010E94020266E371E00E940B1DC3
S11319E00B969093520180935101BC0180E090E0EA
S11319F00E943007DF91CF911F910F91FF90EF90DC
S1131A0008951F9383E00E94DC0A182F882319F09D
S1131A1083E00E948B0A812F1F910895EF92FF9219
S1131A200F931F93CF93DF93EC010FB7F8940E94A9
S1131A3078032FE3FC0120830FBF1092C607109296
S1131A40C50782E00E947B0A882309F066C0809162
S1131A50EB04982F9F5F9093EB048B83EFB6F8947D
S1131A6082E00E94AC01882329F4EFBE0E94B504F1
S1131A7081E056C08E01085D1F4F84E00E94A601DC
S1131A80D093C201C093C101EFBE7E010894E11C52
S1131A90F11CC7010E949D0180729C7C89839A83FA
S1131AA0C7010E949D01816489839A83F80114828D
S1131AB018A61182CE018E9640E050E060E070E8F6
S1131AC00E94920151E050936F022091C101309124
S1131AD0C2014FB7F894809122019091230188307C
S1131AE0910519F08130910511F04FBF18C082E0C3
S1131AF090E090932301809322015093D207309376
S1131B009D0120939C0110923F014FBF0E94010D43
S1131B10882329F40E947A0402C085E001C080E091
S1131B20DF91CF911F910F91FF90EF9008958091D5
S1131B30B5019091B6010097F9F421E030E03093BB
S1131B4064072093630784E791E09093B601809340
S1131B50B501109296011092950181E0809397014E
S1131B605E9A569A80917401309396012093950160
S1131B700E94E20280E0089585E008959FB7F894FA
S1131B80809139018E7F809339018EE780937401AF
S1131B909FBF0E94970D0895AF92BF92CF92DF929C
S1131BA0EF92FF920F931F93DF93CF93CDB7DEB7DE
S1131BB0A9970FB6F894DEBF0FBECDBFE82FF0E0B3
S1131BC0E531F10508F03CC6EA5BFF4FEE0FFF1F5D
S1131BD00590F491E02D09948FB7F8942091540165
S1131BE090916302291739F49091A301992319F470
S1131BF01092C4079DC08FBFE0916302F0E0EE0F26
S1131C00FF1FE758FE4F00811181D801EC902E2D63
S1131C102D502093EC011B96FC90C801069629A731
S1131C200E949D016C01C80108960E949D015C01FF
S1131C30C80104960E949D01F801359697E0DF01E2
S1131C401D929A95E9F7D8011896AC9218971796B1
S1131C50BC9217978583E0916302F0E0EE0FFF1FBB
S1131C60E758FE4F0190F081E02D29A52D3108F0B1
S1131C705CC5DF0115961196CC921197D582169604
S1131C80FC92169714962C93149780912D019091A1
S1131C902E01009709F049C52FB7F89485E0809389
S1131CA0300110923101F0932C01E0932B0182E07A
S1131CB090E090932E0180932D01109233011092A5
S1131CC03201EA94E0922F012FBF8FB7F8949091DC
S1131CD062029A3011F48FBF18C08FBF9FB7F89477
S1131CE08091BD01882331F481E08093BD0110927D
S1131CF0BE0101C080E09FBF882339F00E946603C3
S1131D009FB7F8948BB322E090C510922E011092E5
S1131D102D010BC58FB7F89420913C019091D70702
S1131D20291741F490915301992321F4109244010D
S1131D308FBF86C58FBFE091D707F0E0EE0FFF1F7E
S1131D40ED53FE4F00811181F80135964481D8018D
S1131D501596FC901597818118962C91189730E070
S1131D6017967C9160E0262B372B56819CE0D80196
S1131D70692F1D926A95E9F7B801685D7F4FDB0111
S1131D801D929A95E9F7F801208731874D3108F0C3
S1131D9053C090E03F2D20E0822B932B5387868302
S1131DA097832FB7F8949091990180919A012FBF4E
S1131DB0D80114969C93149715968C932FB7F89486
S1131DC090910601809107012FBF90878187C801F8
S1131DD0019649A70E949D0180649868D8011196D4
S1131DE08C93119712969C93129749A5842F835F25
S1131DF08C9380910901882341F010920901C80154
S1131E000E940E0D882389F40CC54093BF011092E3
S1131E10C00110932701009326018EE00E94E8027E
S1131E2080910901882341F004C08FEF8093090158
S1131E3003C01092A201F5C40E947F0181E097C4FF
S1131E40FFB6F8940E94380801E010E010932301D3
S1131E50009322011092240110925B0110927601EA
S1131E60FFBEFFB6F8940E947506109372010093AA
S1131E707101109293010E945A0280E488BF8AB7CC
S1131E8080628ABF8AB78F7E8ABF89B7806489BF20
S1131E90FFBE1FB7F89480911D0190911E018430FC
S1131EA0910519F483E00E9481061FBF1FB7F894BF
S1131EB00E94DE0180E00E9423061FBF82E00E9490
S1131EC0A60110925301BCC480E00E94A601B8C4CC
S1131ED08FB7F894F0901C018FBF83E00E94AC018F
S1131EE0882351F11FB7F894109223011092220114
S1131EF00E94E0010E945E0283E00E9423060E9489
S1131F00DE011FBF1FB7F894109272011092710185
S1131F100E9475060E94DE010E945A021FBF1092A1
S1131F201E0110921D010E945802DD980E94560263
S1131F3083E00E94E80203C082E00E94A6010091AF
S1131F40C1011091C2010E94B5048091C50790910E
S1131F50C607009709F074C48FEF80930901C80184
S1131F606F2DEAC21FB7F8948091D007882389F4B3
S1131F7081E08093D00780911D0190911E018430EF
S1131F80910521F481E00E948B0A03C086E00E943F
S1131F90E8021FBF55C48FB7F8941092D007C8CE7B
S1131FA08FB7F89490911F01992309F0C1CE8FBF88
S1131FB001E0869B00E08091B3019091B4019817F1
S1131FC0E1F00817D1F484E090E090931E0180932F
S1131FD01D018FB7F89491E090931F018FBF8DE19D
S1131FE060E070E00E94BB030E94E9070E94DE01EA
S1131FF00E94C30182E00E94E8020093B40187E0DA
S1132000B6C39FB7F894809102019FBF823009F450
S113201062C0833030F4882359F0813009F010C451
S113202041C0833009F471C0843009F009C496C0FA
S11320300E94C3010FB7F89480911D0190911E0175
S11320408230910509F021C383E090E090931E0152
S113205080931D018DE168E170E00E94BB0381E083
S11320608093B30110921F01869B80E08093B4019A
S113207087E00E94E80281E00E9481068CE16FE71C
S113208072E00E94BB030E946A070E947A0787E1FC
S113209066E57AE20E94BB0385E16FEF70E80E9477
S11320A0BB03F3C20E94C30186E00E9481060E9422
S11320B06A070E947A070E94E9070E94DE010E94D3
S11320C0C30183E00E9481060E94DE0181E00E9438
S11320D0230686E04CC30E94C3011FB7F8940E94F4
S11320E0CD01882311F01FBF0AC01FBF83E50E94E2
S11320F0B00380E00E94B00380E00E94B0030E941D
S1132100DE0182E00E9423069BC39FB7F89480916E
S113211022019FBF843039F0883041F08230D9F4F5
S11321200E947A048DC30E94C1098AC30E94C3011C
S11321300E9494060E94DE010E9466062FB7F8945E
S113214081E090E090932301809322012FBF83E0EC
S11321500E94A70975C30E94660672C30E946B069B
S11321606FC30FB7F89480915F0290916002109250
S1132170600210925F021092CA071092C90710926F
S11321803E0110923D011092E5011092E4010E947B
S11321905B0B7BC21FB7F89482E0809321010E94FD
S11321A091091FBF80910501882309F049C30E944A
S11321B0C5010E94C30188E0DAC2E0913A01F091BE
S11321C03B01CF018896E080AF014E0D511DDA012D
S11321D02C91221F2227221FDC0113962C93DA0153
S11321E02C912F77DC0111962C93DA0111978C91A5
S11321F080A700913A0110913B01C80101960E9409
S11322009D01292F9FB7F894809177019FBF882360
S113221009F468C0822F8695869590E0837090704B
S11322208230910511F50A5F1F4FC8010E949D017C
S11322304FB7F8942091B1013091B2014FBF82178A
S1132240930761F0C8010E949D0121E030E0BFEFD7
S11322508F3F9B0729F020E030E002C021E030E00E
S11322602115310509F4E5C03DC08330910509F01D
S1132270E0C0DE015996E1E7F2E088E001900D92BA
S11322808150E1F7DE011996FE01799688E001900C
S11322900D928150E1F7DE019196FE01399688E0B6
S11322A001900D928150E1F7DE015196FE01B19645
S11322B088E001900D928150E1F7DE011196FE0154
S11322C0719688E001900D928150E1F7C80106965D
S11322D0BE016F5F7F4F48E050E00E94AA1D009747
S11322E009F0A7C0EE2DED3008F4A3C000913A0127
S11322F010913B01C80101960E949D01492F892F2D
S11323008695869590E09C0123703070842F829589
S113231086958695837090E08330910519F042E0AC
S113232050E002C048E050E02330310519F0E2E00B
S1132330F0E002C0E8E0F0E03696E00FF11F80E044
S113234090E020E030E06191860F911D2F5F3F4FB8
S113235024173507C4F3D80113967C912FEF2093EB
S1132360C707AFB7F8946091C707E5E4F1E020E050
S113237030E0408151814817590741F442814717A1
S113238021F46093C707AFBF50C0622F2F5F3F4F48
S113239033962430310569F76093C707AFBF2091A6
S11323A0C7075FB7F8942F3F21F03091250132170A
S11323B021F42091250141E001C040E030E0F90121
S11323C0EE0FFF1FE20FF31FEB5BFE4F9183808341
S11323D07283442331F0809125018F5F8370809351
S11323E025015FBFFFB6F894C8010E947803FC0181
S11323F08081FFBED8019B969C919B979923A9F05D
S11324008F3399F4E6E0EE2EF12CE00EF11EC701B5
S11324100E949D014FB7F894209106013091070165
S11324204FBFC8010E94360A8C0110933B010093F0
S11324303A018FB7F894109293018FBF0E94200B3A
S1132440FFC180917501882311F5EFB7F89460916D
S11324505501709156018091570190915801209136
S11324606702309168024091690250916A02620FDA
S1132470731F841F951FEFBF209166073091670774
S1132480409168075091690700E00E94A6050E94E8
S1132490BB042FC00E94BB042FB7F8941092DB0139
S11324A02FBF2091F60121FFCBC12091EE01309185
S11324B0EF014091F0015091F1017B018C01E21A8E
S11324C0F30A040B150B2091F2013091F3014091B2
S11324D0F4015091F5012E193F09400B510B2F3F88
S11324E0EFEF3E07EFEF4E07EFE75E0709F0A1C1FC
S11324F0A7C10E94E504A4C101E00E94A605A0C1F1
S11325008091A20190910901891709F499C18093DE
S113251009018823A1F480912601909127010E944A
S11325200E0D682F882309F48BC18FEF8093090166
S113253080912601909127010E940F0A81C18FEF9B
S1132540809309017DC13FB7F8941092CD07909113
S1132550620281E0983009F080E021E0993009F0CE
S113256020E0882311F4222351F010926202E091BA
S1132570ED01F0E0EE0FFF1FE554FE4F10823FBF68
S1132580882311F4222309F12FB7F8949091C207FC
S11325909F5F9093C2079091AC01933471F4809142
S11325A0DD019091DC01981761F08F5F8093DD016C
S11325B0863038F01092DD0104C001E0082791E074
S11325C002C090E000E02FBF04C0992309F054C07A
S11325D000E02FB7F894809128012FBF882339F0A9
S11325E08FB7F8942AE0209362028FBF39C08FB767
S11325F0F894F090BB011091BD018FBF99A70E9480
S1132600870199A58823F1F4FF20E1F41FB7F8941A
S113261082E08093BB0199A70E94870199A5882332
S113262039F4E091DD01F0E0E452FE4F828101C013
S113263080E08093BC0183E48093AC011092ED01AF
S11326401FBF0CC01150123058F48FB7F89425E412
S11326502093AC0121E02093ED018FBF11E001C074
S113266010E0992351F08FB7F894009331018FBF94
S113267083E10E94E80201C010E00FB7F894809152
S113268062028A3021F40E9454030FBFD9C00FBFE5
S1132690112309F4D5C08FB7F8941092D40710927F
S11326A0D3071092A60191E0909362028FBF0E941B
S11326B0BE0D882309F4C4C08FB7F89499E09093B1
S11326C062028FBF0E946603BBC05698579810924F
S11326D0610210929701539A549A579A8FB7F894BB
S11326E010926202109294018FBF1092A301A8C0AD
S11326F082E13DC053985498A3C010922E011092C9
S11327002D019FB7F894809131019FBF90913201C0
S1132710911183E020912B0130912C019091330190
S1132720992309F08DC0882319F00E947F011EC0EF
S11327305FB7F89440916302E42FF0E0EE0FFF1FBF
S1132740E758FE4F808191812817390771F4842F4F
S11327508F5F809363028C3010F01092630280913B
S1132760A301882311F01092A3015FBF80E00E94AF
S1132770E80266C09FB7F89480913501C090360195
S1132780D090370110915A019FBF8823A1F5EFB66D
S1132790F89480915301882339F580913C01E82F06
S11327A0F0E0EE0FFF1FED53FE4FF0800181C08279
S11327B0D1828F5F80933C018C3010F010923C01E9
S11327C090913C018091D707981719F481E0809388
S11327D0530180914401882359F481E00E94E80266
S11327E081E08093440104C00E947F01FC2C0D2DE4
S11327F0EFBECF2CD02E9FB7F894E12FF0E0EE0F70
S1132800FF1FE35FFE4FC082D18280912901112313
S113281011F08B7F01C08D7F8093290110923401C8
S113282006C09FB7F8948BB324E082278BBB9FBF6D
S113283007C012161306140615060CF45DCE59CE05
S1132840A9960FB6F894DEBF0FBECDBFCF91DF912E
S11328501F910F91FF90EF90DF90CF90BF90AF90BA
S113286008950E9491028F3F21F00E94CC0D81E0D7
S1132870089580E00895982F9D57923050F49091D8
S1132880390191609093390190E298279093640202
S11328908DE7809374010E94970D08958FB7F89483
S11328A008958FBF0895FF920F931F93DF93CF93E3
S11328B0CDB7DEB728970FB6F894DEBF0FBECDBFF5
S11328C0FFB6F8948CE591E06FEF70E045E150E0DD
S11328D00E94B71D8FEF8093BF078093D10781E0DB
S11328E08EBD88E080BF83E083BF8CB59DB54AE789
S11328F001C0C9012CB53DB52817390708F441506A
S11329004423B9F782B792B79817E9F32CB53DB5CC
S113291082B792B79817E9F38CB59DB54096821BA0
S1132920930B35E0969587953A95E1F79093C10717
S11329308093C00713BE83B78EBD8EB580BF12BE11
S11329401DBC1CBC8FEF86BF86B780937C0080B70C
S113295090E0877090700097D1F7D29AD19AD09A6C
S1132960DA9AD99AD89A15BA8FEF84BBD498DC989E
S1132970109289001092880080917D008460809379
S11329807D0080918A00887F826080938A001DBCCC
S11329901CBC87B7846087BF8EB5887F84608EBD7A
S11329A00E9431148823E1F702E016E06091C00729
S11329B07091C10780E090E02CE0660F771F881FBC
S11329C0991F2A95D1F720E031EE40E050E00E94B3
S11329D0321D2150304029B9309390000BB9109327
S11329E095001AB8209399003093980000939B00A7
S11329F010939D0010929A0084E490E090936207F3
S1132A00809361071092BB011092BD018AE080930C
S1132A1062021092A6011092AC011092C2071092A9
S1132A20D4071092D3071092CD071092ED010E94A3
S1132A307F021092DD011092DC011FEF10939101CF
S1132A408FEF9FEF909346018093450110924701C9
S1132A50909349018093480110924A0190934C014C
S1132A6080934B0110924D0190934F0180934E013E
S1132A70109250010E9402028093EB0480910001A5
S1132A80909101010196A0E0B0E080939E019093A3
S1132A909F01A093A001B093A10180B7886080BF7B
S1132AA08BE083BF86EE81BF87B7826087BF0E94B9
S1132AB022058AE897E090933B0180933A018E982F
S1132AC00E94C5018C981093AB0110926B02109276
S1132AD06C0210926D0210926E020E94C501D69A89
S1132AE0D59A2FB7F89480910601909107012FBFD2
S1132AF09093B2018093B1010E94620229833A83C8
S1132B004B835C836D837E838F839887A1E7B2E0D8
S1132B10FE01319688E001900D928150E1F7809199
S1132B2008018093990110929A018FE180936602C3
S1132B308AE18093E9040E94620229833A834B83E9
S1132B405C836D837E838F839887A1E7B2E0FE0167
S1132B50319688E001900D928150E1F7E9E7F2E0C7
S1132B60DF0118978C9192919D93808382E0E537E1
S1132B70F807C1F7109277011092C80710929B01D1
S1132B80109270020E9431148823E1F7FFBE7894FA
S1132B90E9E7F1E080E090E044E350E0849F9001B5
S1132BA0859F300D949F300D112424513B4F219368
S1132BB0319301968C30910589F71092630210923B
S1132BC054011092C40781E08093A301E3ECF1E087
S1132BD080E090E044E350E0849F9001859F300DB5
S1132BE0949F300D112427583D4F21933193019622
S1132BF08C30910589F71092D70710923C011092FE
S1132C00440181E0809353010E947B0A8823C9F424
S1132C102FB7F89480911D0190911E01009711F037
S1132C202FBF18C081E090E090931E0180931D0196
S1132C302FBFDD9A64E170E080E090E00E943007ED
S1132C4009C082E00E94AC01882309F067C081E0DA
S1132C500E94AC018FB7F894909162029A3041F0CF
S1132C6090919401943021F08FBF1092A30104C07D
S1132C708FBF80E10E94E8021FB7F89446C087B76F
S1132C80887BA1F480917D008B7F81F46E990EC0C6
S1132C909AB180919A00892B887141F480917400D3
S1132CA082FD04C0379B04C021E003C020E001C0C2
S1132CB025E087B790E083709070009779F080B733
S1132CC090E0877090700097D1F781B792B7891B15
S1132CD08C3030F082B7853F28F002C0E5E003C0B5
S1132CE0E2E001C0E3E085B72E1708F4E22FF0E03C
S1132CF0EA54FD4FE491837C80628E2B85BF7894E7
S1132D008895F89485B78F7D85BF0E9491028F3F87
S1132D1009F4B5CF1FBF0E94CC0DAECF1092530162
S1132D2099CF1F920F920FB60F920BB60F921124E8
S1132D302F933F934F935F936F937F938F939F93BF
S1132D40AF93BF93EF93FF930E94A70221B730E0A4
S1132D502F5F3F4F40E050E080914001909141014E
S1132D60A0914201B0914301820F931FA41FB51F8C
S1132D708093400190934101A0934201B093430199
S1132D8078940E942205FF91EF91BF91AF919F919A
S1132D908F917F916F915F914F913F912F910F9000
S1132DA00BBE0F900FBE0F901F9018951F920F929D
S1132DB00FB60F920BB60F9211242F933F934F939C
S1132DC05F936F937F938F939F93AF93BF93EF938F
S1132DD0FF930E94A702FF91EF91BF91AF919F9142
S1132DE08F917F916F915F914F913F912F910F90B0
S1132DF00BBE0F900FBE0F901F90189578941F92E2
S1132E000F920FB60F920BB60F9211241F932F93AC
S1132E103F934F935F936F937F938F939F93AF935E
S1132E20BF93EF93FF930E94E0011FB7F894809142
S1132E30A7019091A801A091A901B091AA010097BE
S1132E40A105B10509F051C080912201909123019F
S1132E508530910561F18630910538F48330910510
S1132E6059F08430910561F519C087309105E9F076
S1132E708830910529F512C0869B0DC084E090E04E
S1132E80909323018093220167E070E080E090E05A
S1132E900E94300715C00E94540712C00E94010D01
S1132EA0882371F40E94C1090BC080E007C00E940E
S1132EB094060E9438080E94660687E00E94B009C2
S1132EC080911D0190911E018130910581F482E071
S1132ED090E090931E0180931D010E9458020E946D
S1132EE0560280E00E948B0A02C00E94A2061FBF05
S1132EF0FF91EF91BF91AF919F918F917F916F91CE
S1132F005F914F913F912F911F910F900BBE0F90A6
S1132F100FBE0F901F90189578941F920F920FB6C2
S1132F200F9211240F900FBE0F901F901895789454
S1132F301F920F920FB60F9211240F900FBE0F9095
S1132F401F90189578941F920F920FB60F920BB69C
S1132F500F9211246F927F928F929F92AF92BF92A1
S1132F60CF92DF92EF92FF920F931F932F933F9391
S1132F704F935F936F937F938F939F93AF93BF937D
S1132F80EF93FF93DF93CF930F92CDB7DEB7C6B421
S1132F90D7B4BFB6F8940E94E4019B012C193D09F3
S1132FA040E050E07B018C01E21AF30A040B150B9C
S1132FB080912201909123018530910529F086307A
S1132FC0910509F080C05DC086E090E090932301F4
S1132FD08093220181E0809392011092240180E089
S1132FE00E941D0880919C0190919D018E96B801CC
S1132FF0A7010E949201E0919C01F0919D0185A599
S1133000882351F1208125503F01620E711CC301B8
S113301029830E94AD02AB01BC014E195F09600B0C
S1133020710BC3010E9492010E94C30180E090E0F1
S11330302981622FA30124E00E94A9070E94DE01D6
S1133040C3010E94AD02AB01BC014E0D5F1D601FA8
S1133050711FC3010E94920180919C0190919D0176
S113306001960E949D0185FF03C081E080935B016E
S11330700E9466060E94E0010E94D802882309F09B
S11330807BC0109292010E94380880919C0190911B
S11330909D0101960E949D0185FF0DC087E090E08F
S11330A0909323018093220160E071E080E090E03E
S11330B00E94300703C080E00E94B0090E94D80239
S11330C0882309F459C080912401882379F58091DB
S11330D09201882359F581E08093920180E00E9457
S11330E01D080E94D802A82E8091BE07883090F453
S11330F0E091C307E80FE770F0E0EE0FFF1FEE0F5B
S1133100FF1FE659F84FE082F182028313838F5F39
S11331108093BE0781E080932401D092BA01C092CB
S1133120B9010E94D802882311F026C0AA248091F4
S11331309201813009F5109292010E943808109290
S11331402401AA20C9F48091B9019091BA01C81A46
S1133150D90A2AE0C216D10478F48091BE078823E4
S113316019F081508093BE0780919C0190919D013C
S1133170009711F00E949806BFBE0F90CF91DF9187
S1133180FF91EF91BF91AF919F918F917F916F913B
S11331905F914F913F912F911F910F91FF90EF906D
S11331A0DF90CF90BF90AF909F908F907F906F9063
S11331B00F900BBE0F900FBE0F901F901895789430
S11331C01F920F920FB60F9211242F938F939F93F8
S11331D02FB7F8948091E6019091E70101969093BE
S11331E0E7018093E6012FBF9F918F912F910F905C
S11331F00FBE0F901F9018951F920F920FB60F924B
S113320011240F900FBE0F901F9018951F920F92CC
S11332100FB60F9211240F900FBE0F901F901895A8
S11332201F920F920FB60F9211240F900FBE0F90A2
S11332301F9018951F920F920FB60F9211240F90A2
S11332400FBE0F901F9018951F920F920FB60F92FA
S113325011240F900FBE0F901F9018951F920F927C
S11332600FB60F9211240F900FBE0F901F90189558
S11332701F920F920FB60F920BB60F9211242F9339
S11332803F934F935F936F937F938F939F93AF93EA
S1133290BF93EF93FF9380917101909172018130FC
S11332A0910549F482E090E090937201809371015A
S11332B00E94070B05C0809178018F5F809378018D
S11332C0FF91EF91BF91AF919F918F917F916F91FA
S11332D05F914F913F912F910F900BBE0F900FBEB6
S11332E00F901F9018951F920F920FB60F921124F2
S11332F00F900FBE0F901F9018951F920F920FB64C
S11333000F920BB60F9211242F933F934F935F9319
S11333106F937F938F939F93AF93BF93EF93FF9399
S11333202FB180915F0290916002009739F0E09193
S1133330E401F091E501E80FF91F20838091E40195
S11333409091E50101969093E5018093E40180E07A
S11333500E94DC022091E4013091E50180913D015D
S113336090913E012817390718F40E94DA0317C018
S113337080915F02909160021092600210925F024D
S11333801092CA071092C90710923E0110923D0193
S11333901092E5011092E4012FB10E945B0BFF91A2
S11333A0EF91BF91AF919F918F917F916F915F91B9
S11333B04F913F912F910F900BBE0F900FBE0F9026
S11333C01F9018951F920F920FB60F920BB60F9283
S11333D011242F933F934F935F936F937F938F9316
S11333E09F93AF93BF93EF93FF935F9B3FC06CB1E9
S11333F02091EA013091EB012115310501F1809111
S1133400CB079091CC07280F391FF90160830196EF
S11334109093CC078093CB072091D5073091D607A2
S11334208217930718F11092EB011092EA01809130
S113343061028330D9F057981092610217C06E3739
S113344019F481E060E010C0809139016D3721F4F6
S11334508260809339010AC081FF05C08D7F80930B
S1133460390180E2682780E00E944B08FF91EF91C8
S1133470BF91AF919F918F917F916F915F914F9188
S11334803F912F910F900BBE0F900FBE0F901F9086
S1133490189578941F920F920FB60F920BB60F9255
S11334A01124FF920F931F932F933F934F935F9396
S11334B06F937F938F939F93AF93BF93CF93DF9338
S11334C0EF93FF93209195013091960180916307CA
S11334D0909164072817390780F4E091B501F091C1
S11334E0B601E20FF31F80812F5F3F4F30939601A7
S11334F0209395010E94E202C1C01092B60110927D
S1133500B5011092970156981FB7F894809139012C
S113351080FF0AC08E7F809339018091640280937A
S113352074010E94970DA9C080916202843009F44D
S113353086C0853040F4823011F18330A8F58130A3
S113354009F096C00DC0863009F487C0863008F4AF
S11335507DC0873009F488C0883009F089C08BC0E9
S11335608091AC010E943B14082F83E08093620297
S11335708091D3079091D4076091AC010EC08091E3
S1133580C2070E943B14082F83E08093620280915B
S1133590D3079091D4076091C2070E943C0890938E
S11335A0D4078093D30762C0E091ED01F0E0EE0F01
S11335B0FF1FE454FE4F80810E943B14082FF090BB
S11335C0ED01CF2DD0E0FE01EE0FFF1FE454FE4FBE
S11335D08091D3079091D40760810E943C08909316
S11335E0D4078093D3078091A6018F5F8093A601AF
S11335F09F2D913011F520913001E0912B01F09134
S11336002C01E20FF11D90812F5F20933001309146
S11336102F01321720F492E09093BD0190E0CC0F7B
S1133620DD1FFE01E554FE4F2081223031F08F3F33
S113363021F0C454DE4F988319C084E012C08091F5
S1133640D3070E943B14082F85E00BC08091D40758
S11336500E943B14082F86E004C00E94BE0D082F70
S113366087E08093620202C088E003C0002329F04F
S113367089E0809362020E9466031FBFFF91EF916D
S1133680DF91CF91BF91AF919F918F917F916F9176
S11336905F914F913F912F911F910F91FF900F9048
S11336A00BBE0F900FBE0F901F9018951F920F9294
S11336B00FB60F9211248F9380919B0087FF02C055
S11336C080919C008F910F900FBE0F901F901895C2
S11336D078941F920F920FB60F9211240F900FBE81
S11336E00F901F90189578941F920F920FB60F9217
S11336F011240F900FBE0F901F90189578941F926D
S11337000F920FB60F9211240F900FBE0F901F90BF
S1133710189578941F920F920FB60F9211240F9060
S11337200FBE0F901F90189578941F920F920FB6AA
S11337300F9211248F939F93809180009091810028
S11337409F918F910F900FBE0F901F9018957894B2
S11337501F920F920FB60F9211242F938F939F9362
S11337602FB7F8948091A4019091A50101969093AC
S1133770A5018093A4012FBF9F918F912F910F904A
S11337800FBE0F901F901895ACE2B0E0EAECFBE19D
S11337900C94731D29833A834B835C836D837E83EE
S11337A08F839887A986BA86CB86DC86ED86FE86CB
S11337B00F87188B69807A808B809C8069A27AA29B
S11337C08BA29CA2840173018FEF9FEFA0E0B0E075
S11337D0E822F9220A231B23140144245524698472
S11337E07A848B849C846DA27EA28FA298A66401A5
S11337F05301A822B922CA22DB2234018824992445
S1133800C601B501A80197010E94541D69A77AA7B2
S11338108BA79CA7C401B3010E94541D7B018C019A
S1133820C601B501A20191010E94541D5B016C0106
S1133830C401B3010E94541D9B01AC01EA0CFB1CA2
S11338400C1D1D1D69A47AA48BA49CA4C401AA27E1
S1133850BB27E80EF91E0A1F1B1FEA14FB040C0504
S11338601D0520F4205030404F4F5F4FC801AA2758
S1133870BB27820F931FA41FB51F8D8F9E8FAF8F01
S1133880B8A38701FF24EE2429A53AA54BA55CA57E
S113389040705070E20EF31E041F151FE98EFA8E5D
S11338A00B8F1C8FDE2CAA8CCB8C6C8C8D8B8E8D0D
S11338B08E8B8F8D8F8B88A1888F2D853E854F852C
S11338C0588969A17AA18BA19CA10E94541D7B01F6
S11338D08C012D813E814F8158856DA17EA18FA1E0
S11338E098A50E94541DE60EF71E081F191F6D8926
S11338F07E898F89988D6E0D7F1D801F911F6D8B22
S11339007E8B8F8B988F7E892D2D3A2D4C2D562DA5
S11339108F89988DAC96E2E10C948F1D0F93DF9301
S1133920CF93CDB7DEB760970FB6F894DEBF0FBE66
S1133930CDBF002309F459C029833A834B835C83A8
S11339406D837E838F839887E0E2E01B2D813E8127
S11339504F8158851E16BCF01D861E861F86188A48
S11339608E2F992787FD9095909581959F4F04C040
S113397056954795379527958A95D2F729873A879B
S11339804B875C872AC0CA01B901002E04C09695F2
S11339908795779567950A94D2F76D877E878F8789
S11339A0988BDA01C90104C0880F991FAA1FBB1F95
S11339B0EA95D2F729813A814B815C8104C05695FE
S11339C04795379527950A95D2F7822B932BA42BED
S11339D0B52B89879A87AB87BC8729853A854B8520
S11339E05C856D857E858F85988960960FB6F89481
S11339F0DEBF0FBECDBFCF91DF910F910895991B0C
S1133A0079E004C0991F961708F0961B881F7A95D1
S1133A10C9F780950895AA1BBB1B51E107C0AA1FD3
S1133A20BB1FA617B70710F0A61BB70B881F991F5B
S1133A305A95A9F780959095BC01CD01089597FBFF
S1133A40092E07260AD077FD04D0E5DF06D0002032
S1133A501AF4709561957F4F0895F6F790958195C6
S1133A609F4F0895A1E21A2EAA1BBB1BFD010DC096
S1133A70AA1FBB1FEE1FFF1FA217B307E407F5071A
S1133A8020F0A21BB30BE40BF50B661F771F881FF6
S1133A90991F1A9469F760957095809590959B018C
S1133AA0AC01BD01CF010895629FD001739FF00165
S1133AB0829FE00DF11D649FE00DF11D929FF00DBA
S1133AC0839FF00D749FF00D659FF00D9927729FF1
S1133AD0B00DE11DF91F639FB00DE11DF91FBD017C
S1133AE0CF01112408952F923F924F925F926F92CB
S1133AF07F928F929F92AF92BF92CF92DF92EF927A
S1133B00FF920F931F93CF93DF93CDB7DEB7CA1BFA
S1133B10DB0B0FB6F894DEBF0FBECDBF09942A8825
S1133B20398848885F846E847D848C849B84AA84CD
S1133B30B984C884DF80EE80FD800C811B81AA815A
S1133B40B981CE0FD11D0FB6F894DEBF0FBECDBF25
S1133B50ED010895FB01DC0104C08D9101908019F1
S1133B6021F441505040C8F7881B990B0895DC019B
S1133B7001C06D9341505040E0F70895F894FFCF91
S1133B800100FFFFFFFF010022FFFFFFFFF7012BF2
S10F3B9002F70100009CFF020008000086
S9030000FC
