S01800006275696C642F6D6963617A2F6D61696E2E73726563E5
S11300000C9449000C944D130C9457130C946113E5
S11300100C946B130C9475130C947F130C94891328
S11300200C94C4130C9468000C9468000C94F311A1
S11300300C944F110C94DD110C9430130C94E210B9
S11300400C9427110C94CE130C9468000C94680043
S11300500C9468000C9468000C9468000C9468007C
S11300600C94E8110C9468000C9468000C946800DB
S11300700C9468000C9468000C9468000C9468005C
S11300800C9468000C9468000C94680000081C1818
S1130090141011241FBECFEFD0E1DEBFCDBF11E09D
S11300A0A0E0B1E0E4EFFBE200E00BBF02C0079088
S11300B00D92A431B107D9F714E0A4E1B1E001C075
S11300C01D92AE38B107E1F70E942D0F0C94F8157C
S11300D00C940000362F272FFC0143835283618345
S11300E07083BA01832F922F0895FC01918180E0DF
S11300F0208130E0282B392BC90108959FB7F8944B
S11301008093A5019FBF0895282F9FB7F89481E09D
S11301103091A501321380E09FBF089580910501BD
S1130120882339F481E090911901923019F080E02C
S1130130089580E00895C0980895B89A08958FB7F7
S1130140F8941092A4018FBF08959FB7F89481E0AA
S11301502091A401211180E09FBF089586B70895DE
S11301609FB7F8948BB321E082278BBB9FBF089580
S1130170882311F06E9A08956E980895C09A089590
S113018087B78F7E87BF08954FB7F8942091920167
S1130190309193018CB59DB556B752FF04C02F5FC3
S11301A03F4F8CB59DB54FBF40E050E0A9013327C8
S11301B02227A0E0B0E0282B392B4A2B5B2BB90176
S11301C0CA0108956F927F928F929F92AF92BF92CD
S11301D0CF92DF92EF92FF920F931F93A0905D0155
S11301E0B0905E01C0905F01D09060019501A601BE
S11301F060E070E080E090E0FEE4AF2EE3E8BE2E25
S1130200CC24DD24EE24FF2400E010E00E9433140B
S113021039014A0100E20E94FD1459016A01A40156
S1130220930156954795379527952A0D3B1D4C1DEF
S11302305D1D57FF05C05F772F5F3F4F4F4F5F4FE7
S113024020935D0130935E0140935F015093600100
S1130250C9011F910F91FF90EF90DF90CF90BF9055
S1130260AF909F908F907F906F900895DE9A08953D
S1130270DE98089589B78F7B89BF089587B78F7DEE
S113028087BF0895DF93CF93CDB7DEB728970FB616
S1130290F894DEBF0FBECDBF20E032E14DE65CE452
S11302A06FE470E0809101019091000128960FB6EF
S11302B0F894DEBF0FBECDBFCF91DF91089580913A
S11302C07E048F3F89F0282F30E0F901E05CFE4F77
S11302D0908190937E049F3F11F490938B04205C53
S11302E03E4F9FEFF9019083089583B783BF00B613
S11302F000FCFDCF0895FC01238130E040E050E094
S1130300808190E0A0E0B0E0B82FAA279927882741
S1130310282B392B4A2B5B2B618170E080E090E025
S1130320CB0177276627262B372B482B592B828125
S113033090E0A0E0B0E0BA2FA92F982F8827282BAF
S1130340392B4A2B5B2BB901CA01089581E0849BA8
S113035080E00895882311F06F9A08956F980895A6
S1130360EF92FF92CF93DF93E82EE7017E01F92EFF
S1130370E701C70101960E947500E92FE695E6950D
S1130380F0E0E370F070EE0FFF1FE45FFE4F20819A
S11303903181892F829586958695837090E084308B
S11303A0910540F4FC01EE0FFF1FE45FFE4F8081D6
S11303B0918102C08CE99FEF280F391F2A5F3F4FBC
S11303C02C0F3D1FC901DF91CF91FF90EF9008954D
S11303D09FB7F894E82FF0E0E05CFE4F20812F3FB8
S11303E049F421E030E040918B04481729F020E0E3
S11303F030E002C021E030E02115310589F420917C
S11304007E042F3F19F480937E0406C0E0918B0490
S1130410F0E0E05CFE4F808380938B0480E001C0B9
S113042085E09FBF08951F93182F81E00E94B800B4
S11304301FB9779BFECF8FB11F910895EF92FF9262
S11304400F931F93182F062FE72EFFB6F8940E94E0
S1130450A500882319F0FFBE80E00AC0FFBE812FEB
S11304600E9413028E2D0E941302802F0E941302F9
S11304701F910F91FF90EF900895CF92DF92EF922A
S1130480FF920F931F93CF93DF934FB7F89400918C
S1130490860410918704E0909D01F0909E01C09124
S11304A09001D09191012091230130912401CE013A
S11304B00A962817390708F4C9014FBF6C0108943C
S11304C0C108D10813C00115110529F0F801EC0F7A
S11304D0FD1F808101C080E00E941302E114F10439
S11304E021F0F701EC0FFD1F80832196CC15DD056B
S11304F050F381E00E94AA018FB7F8940115110509
S113050031F0F801EC0FFD1F90819FB901C01FB8B5
S1130510D0939101C09390018FBF80E0DF91CF9180
S11305201F910F91FF90EF90DF90CF9008952FB718
S1130530F89450932401409323019093870480936B
S1130540860470939E0160939D0110929101109214
S113055090012FBF4115510521F08FB10E943D023A
S1130560089588E00E94E80180E008950F931F93A6
S1130570CF93DF93EC01062F1FB7F8940E94A500D8
S1130580882319F01FBF10E012C01FBF8FE790E04F
S11305909093700180936F018FE70E941302182FCC
S11305A080E090E0BE01402F50E00E949702812F2E
S11305B0DF91CF911F910F9108950F931F93CF93C4
S11305C0DF93C0915B01D0915C011AA5112309F45A
S11305D01FE10E949B0080915201811739F0612F25
S11305E070E0606E706885E10E941E0210935201F3
S11305F008811FB7F8940E94A500882311F01FBF3B
S113060012C01FBF8EE390E09093700180936F013E
S11306108EE30E941302402F4150CE0160E070E04F
S113062050E00E949702DF91CF911F910F9108959E
S11306308FB7F8941092A6018FBF08950F931F935C
S11306401FB7F89402B70E94AE00209126013091A2
S11306502701409128015091290181FF0FC091B7D2
S113066082B72F5F3F4F4F4F5F4F290F311D411D01
S1130670511D280F311D411D511D04C0200F311D76
S1130680411D511D1FBFB901CA011F910F9108954A
S1130690EF92FF920F931F937B018C0160919C0159
S11306A061FF2BC08091940190919501A0919601D6
S11306B0B0919701209198013091990140919A014C
S11306C050919B01E81AF90A0A0B1B0BE216F30678
S11306D00407150790F060FF04C06D7F60939C01D0
S11306E00CC0820F931FA41FB51F80939401909395
S11306F09501A0939601B09397018CE00E94E801C4
S11307001F910F91FF90EF900895CF92DF92EF9297
S1130710FF920F931F931FB7F89401B7C2B60E94BC
S1130720AE000C1511F081FF02C01FBF6BC0809199
S11307308F018823D1F10E941E032091A0013091E2
S1130740A1014091A2015091A301C0903A01D0901F
S11307503B01E0903C01F0903D01621B730B840B64
S1130760950B6C157D058E059F0528F010928F0161
S113077086EE61E01EC0D701C601820F931FA41F3D
S1130780B51F2091260130912701409128015091F5
S11307902901821B930BA40BB50B873E9105A10580
S11307A0B10518F4823020F402C086EE01C082E064
S11307B060E0782F715000B601FCFDCF92B7791735
S11307C009F4782F8091260190912701A0912801A6
S11307D0B09129019C01AD012F5F3F4F4F4F5F4FF7
S11307E0270F311D411D511D281739074A075B0783
S11307F010F4782F709571BF1FBF662319F08BE03A
S11308000E94E8011F910F91FF90EF90DF90CF902D
S113081008950F93209325043093260440932704CE
S11308205093280400935101EFB7F894F1E0F0934A
S11308308F016093A0017093A1018093A201909312
S1130840A30120933A0130933B0140933C01509320
S11308503D01EFBF0E9485030F9108958091180117
S1130860882309F04BC0809102018F3F09F046C0F4
S11308700E94A500882309F441C081E080932304E9
S113088080913F01882311F0109223048091230466
S11308908823B1F10E948E00882311F00E94BE00CB
S11308A080911901823071F580910501882361F5E9
S11308B0209103012F3FD1F0822F90E0FC01EA59EF
S11308C0FE4F3081309303013F3F11F43093040114
S11308D08A599E4F3FEFFC0130832093050181E04C
S11308E08093190189E00E94E80104C02093050166
S11308F01092190180E00E94B80004C081E00895BC
S113090085E0089580E0089580E008951F931FB75F
S1130910F89490910201981719F01FBF81E033C039
S11309208FEF80930201E0911801EE2329F080E01B
S1130930F5E02E2F30E005C00E949F000E942E0497
S11309401CC06F2F0E946E15A901092E02C0559577
S113095047950A94E2F740FF13C09093020121E007
S113096030E002C0220F331F9A95E2F720952E2320
S11309702093180187E00E94E8011FBF80E003C0B4
S1130980892F8F5FDECF1F91089584E00E94860433
S1130990089583E00E94860480E008950E949B00ED
S11309A0809120019091210161E00E94B602089596
S11309B080E880933E0110925701109281041092B6
S11309C07D041092540108950F931F93082F1FB7AD
S11309D0F8940E94A500882319F01FBF80E004C08A
S11309E01FBF802F0E9413021F910F91089589E069
S11309F00E94E4040895FC0115A68E9640E050E0A0
S1130A0060E070E80E946A000895EF92FF920F93ED
S1130A101F930E94C4007B018C01209167013091D7
S1130A2068014091690150916A018091620190913D
S1130A306301A0916401B0916501820F931FA41F0B
S1130A40B51FE216F3060407150730F08217930763
S1130A50A407B50758F005C082179307A407B50784
S1130A6090F5E816F9060A071B0768F59C01AD0125
S1130A702E193F09400B510B213060E8360760E026
S1130A80460760E0560710F1D801C701805090482E
S1130A90AF4FBF4F8093670190936801A0936901A2
S1130AA0B0936A0120503048404050402093620186
S1130AB030936301409364015093650120E030E872
S1130AC040E050E013C020E030E0A90180936701CA
S1130AD090936801A0936901B0936A011092620136
S1130AE01092630110926401109265018CB59DB55A
S1130AF00396AC014E195F094217530718F4C90154
S1130B008E0D9F1D009711F481E090E001979BBD2D
S1130B108ABD80E186BF87B7806187BF1F910F912F
S1130B20FF90EF900895DF92EF92FF920F931F933F
S1130B307B018C010E94C400DFB6F89460936701C6
S1130B40709368018093690190936A01E092620155
S1130B50F092630100936401109365010E940505FE
S1130B60DFBE1F910F91FF90EF90DF9008951F93C8
S1130B701FB7F8940E94E20066E470E00E947A15C0
S1130B800B969093890480938804BC0180E090E0E4
S1130B900E9493051FBF1F9108958FB7F894609129
S1130BA022048FBF85E0689FB0011124625D7E4FEF
S1130BB0706488E10E941E0208951F931FB7F89481
S1130BC080915301882331F061E070E080918504C5
S1130BD0882311F460E070E0762F6627770F770F93
S1130BE0770F80915A01882331F081E090E02091C1
S1130BF0A901222311F480E090E0626E7262B4E0F5
S1130C00880F991FBA95E1F7682B792B81E10E942F
S1130C101E021FBF1F910895CF92DF92EF92FF92A1
S1130C200F931F93DF93CF930F92CDB7DEB76C0171
S1130C308A01F22EEFB6F89469830E94A5006981B7
S1130C40882319F0EFBE80E01DC0EFBEC60ED11C94
S1130C508C2D80680E941302E82EC6019695879514
S1130C60807C0E941302CF2CDD2409C0F601EF1909
S1130C70F109E00FF11F80810E941302FA94FF2012
S1130C80A9F78E2D0F90CF91DF911F910F91FF90B7
S1130C90EF90DF90CF900895DF93CF93CDB7DEB779
S1130CA02C970FB6F894DEBF0FBECDBF9FB7F89454
S1130CB0DE011196EAEAF1E088E001900D9281509C
S1130CC0E1F7209158018091590129878A87209161
S1130CD06B0180916C012B878C879FBF80E691E02C
S1130CE060E0AE014F5F5F4F2CE00E940C062C9633
S1130CF00FB6F894DEBF0FBECDBFCF91DF9108953C
S1130D00DF93CF930F92CDB7DEB789830E943E0164
S1130D1090E296BF8981882319F08EB5806402C061
S1130D208EB58F7B8EBD87B7806287BF80E00F90C2
S1130D30CF91DF91089581E00E948006089580E0BC
S1130D400E94B800BA9ABB98B99A0E949D006C9A06
S1130D5080E00E94AA016B986A9881E00E94B80022
S1130D60709A8DB18C7F8DB908959FB7F894809354
S1130D7014019FBF83E00E94E80108951F93182F78
S1130D8021E030E030931B0120931A0110923F01BF
S1130D900E942E04812F0E94B5061F9108950F937F
S1130DA01F931FB7F89480911A0190911B0188300A
S1130DB0910589F40E94F7040E94C9040E94BE00B0
S1130DC081E090E090931B0180931A0183E00E94DC
S1130DD0B5061FBF2FC00E949B0080918C048823FE
S1130DE011F085E001C084E00E94E40483FD05C0A5
S1130DF080E00E94E40483FD04C001E083E090E00D
S1130E0003C000E085E090E090931B0180931A01F9
S1130E100E94BE001FBF002339F0109225010E94DA
S1130E20C9040E94B70506C060E471E080E090E068
S1130E300E9493051F910F910895662319F00E9453
S1130E40B0001EC05FB7F89440918D04E42FF0E029
S1130E50EE0FFF1FE958FE4F20813181821793075F
S1130E6071F4842F8F5F80938D048C3010F0109276
S1130E708D0480913901882311F0109239015FBFEC
S1130E8080E00E94E8010895FF920F931F93DF937F
S1130E90CF9300D0CDB7DEB7FFB6F89420913901D7
S1130EA0222339F520912201E22FF0E0EE0FFF1FFB
S1130EB0E958FE4F0081118180839183822F8F5FD7
S1130EC0809322018C3010F0109222019091220123
S1130ED080918D04981719F481E0809339018091F1
S1130EE02A01882371F40E94E80181E080932A0199
S1130EF008C089839A830E94B0008981082F9A814F
S1130F00192FFFBEC8010F900F90CF91DF911F9151
S1130F100F91FF9008959FB7F894E82FF0E0EC55F7
S1130F20FE4F8081882321F481E0808380E001C02A
S1130F3081E09FBF08950F931F93182F0FB7F89464
S1130F4080E00E948B078823B1F5109302010E9470
S1130F508E00882311F087E00AC08091190188234C
S1130F6049F481E0809319011092050189E00E94FF
S1130F70E8012DC0809166018F3F49F481E090E043
S1130F8020910401222329F080E090E002C081E056
S1130F9090E00097E1F4809103018F3F19F41092DF
S1130FA0030106C0E0910401F0E0EA59FE4F10820B
S1130FB0109204010CC021E030E002C0220F331F64
S1130FC01A95E2F780911801822B809318010FBFC4
S1130FD080E01F910F9108950F931F93082F1FB75F
S1130FE0F89480E00E948B07882319F01FBF85E0E6
S1130FF01BC00E948E00882379F4809119018823F4
S113100079F482E080931901109205010E949F06F1
S11310100E949D000E949B000093020180E003C097
S11310200E949F0081E01FBF1F910F91089582E0ED
S113103090E090934F0180934E0181E0809357019B
S113104080910201843029F084E00E94EC07882317
S113105019F40E94CE04089584E00E949B07089529
S11310601F931FB7F89480914E0190914F01009700
S1131070D1F01092570180915401882311F0B7994F
S113108004C00E9908C0882319F08150809354013C
S11310900E9417080AC081E090E090934F0180936A
S11310A04E01109254010E94C5041FBF1F91089560
S11310B00E94D8040E94BE000E949B0088E00E9407
S11310C0E40488E00E94E4040E94BE000E94C50477
S11310D00E9430080895EF92FF920F931F93CF93CD
S11310E0DF938C0180916F0186FF51C18F7B8F3319
S11310F009F090C1C0912001D09121014881409311
S1131100500180914E0190914F018530910509F471
S113111044C08630910509F492C08230910509F0EB
S11311202FC185E090E090934F0180934E01509140
S11311303E01242F30E0852F90E02817390754F51D
S1131140B79907C00E9905C0842F8095850F8093A9
S11311503E014A32F8F44423B1F0BE016F5F7F4F81
S1131160483028F080E090E047E050E009C086E095
S113117090E090934F0180934E0180E090E050E026
S11311800E94970247C1109257010E94BE000E941C
S1131190C504F3C00E9458083DC186E090E09093D6
S11311A04F0180934E0180915A01882309F440C075
S11311B08091A9018823E1F58E010F5F1F4FC801BB
S11311C00E94750085FF34C066E0E62EF12CEC0E1B
S11311D0FD1EC7010E9475004FB7F89420916B0162
S11311E030916C014FBF8217930739F0C7010E94F9
S11311F075002FEF8F3F9207D9F4C8010E94750044
S1131200877090708130910599F40E94BE000E940D
S11312109B008AE00E94E4040E94BE000E949B009E
S1131220609150016750CE0108960E94B602F2C048
S1131230BE01685F7F4F4091500147509ECF0E948E
S1131240BE0080915401882311F40E94C50480914A
S11312505401882311F0B7990AC00E9B08C08091ED
S11312607D04882321F0909150019B3038F48091C3
S11312702001909121010E94FB042FC08130A1F430
S11312808091200190912101E0918104F0E0EE0F22
S1131290FF1FEE0FFF1FE75DFB4F4081518162810D
S11312A073818E960E946A008091810490E0019679
S11312B0877090708093810480917D048150809325
S11312C07D04882351F080912001909121010E9496
S11312D0FB041092810410927D0480915001FE0160
S11312E0E80FF11D808187FF48C00115110509F43D
S11312F044C0CE0101960E94750087703091200190
S113130020912101823099F5E0915B01F0915C011B
S1131310309799F180911A0190911B0187309105C2
S113132061F5832FEC017E01F22EE70193818B811D
S1131330981719F50E94C000A0915B01B0915C015F
S11313409D01285D3F4F888191E0F9019483C80F86
S1131350D11DCE010197FC01808198968C938881E0
S11313608F77F901818380E00E94BE0606C0813038
S113137021F48AE00E94E8014DC00E9430084AC06E
S1131380109257010E94BE000E94C50443C08E33D0
S113139009F040C00E94BE0080911A0190911B0187
S11313A08830910591F40E949B000E94F7040E94EA
S11313B0BE000E94C90481E090E090931B018093D9
S11313C01A0183E00E94B50625C080918C0488230D
S11313D049F484E090E090931B0180931A010E94E9
S11313E0CF0618C00E94C90483E090E090931B01CB
S11313F080931A010E94E20066E371E00E947A156C
S11314000B969093380180933701BC0180E090E003
S11314100E949305DF91CF911F910F91FF90EF9060
S113142008951F9383E00E94EC07182F882319F076
S113143083E00E949B07812F1F910895EF92FF92F2
S11314400F931F93CF93DF93EC010FB7F8940E948F
S1131450B0012FE3FC0120830FBF1092830410928C
S1131460820482E00E948B07882309F066C0809181
S11314702404982F9F5F909324048B83EFB6F894F1
S113148082E00E948400882329F4EFBE0E9418039E
S113149081E056C08E01085D1F4F84E00E947E00EB
S11314A0D0937601C0937501EFBE7E010894E11CD0
S11314B0F11CC7010E94750080729C7C89839A8309
S11314C0C7010E947500816489839A83F80114829C
S11314D018A61182CE018E9640E050E060E070E8DC
S11314E00E946A0051E05093A80120917501309147
S11314F076014FB7F89480911A0190911B018830BE
S1131500910519F08130910511F04FBF18C082E0A8
S113151090E090931B0180931A0150938C043093B4
S11315205C0120935B01109225014FBF0E94110AB8
S1131530882329F40E94DD0202C085E001C080E016
S1131540DF91CF911F910F91FF90EF9008959F929B
S1131550AF92BF92CF92DF92EF92FF920F931F93BD
S1131560DF93CF93CDB7DEB7A8970FB6F894DEBF5D
S11315700FBECDBF863009F470C1873090F482303D
S113158009F4FEC0833030F4882309F1813009F076
S113159043C4B2C0843009F441C1853008F057C156
S11315A0F3C08A3009F467C28B3038F4883009F408
S11315B036C2893008F04CC282C18C3009F4C8C3E9
S11315C08C3008F49CC38D3009F026C4F6C38FB761
S11315D0F8942091220190918D04291739F4909167
S11315E03901992319F410922A0135C18FBFE09172
S11315F08D04F0E0EE0FFF1FE958FE4F00811181CA
S1131600D801CC9083EFD82EDC0C1B969C90B6E0CE
S1131610EB2EF12CE00EF11EC7010E9475005C0157
S1131620C80108960E9475004CE0D801242F1D9231
S11316302A95E9F79801285D3F4FD9011D924A95F3
S1131640E9F7F80180879187FD2DFD3108F050C03E
S1131650D8011B969C921B971696AC921697F7018D
S1131660B1822FB7F89490915801809159012FBFFE
S113167014969C93149715968C932FB7F894909185
S11316800601809107012FBFF80190878187C80167
S113169001960E94750080649868D80111968C9315
S11316A0119712969C931297CC92809109018823EA
S11316B041F010920901C8010E941E0A882389F48E
S11316C09DC3D09273011092740110931F01009373
S11316D01E018DE00E94E80180910901882341F0F8
S11316E004C08FEF8093090103C01092610186C387
S11316F00E94B00080E0E0C0EFB6F8940E949B0620
S113170001E010E010931B0100931A0110921C01D8
S113171010923F0110925201EFBEEFB6F8940E946E
S1131720D80410934F0100934E01109257010E9468
S11317303A0180E488BF8AB780628ABF8AB78F7E05
S11317408ABF89B7806489BFEFBE0FB7F8948091D0
S11317501501909116018430910519F483E00E94DB
S1131760E4040FBF0FB7F8940E94BE0080E00E940B
S113177086040FBF82E00E947E00109239014CC3A0
S113178080E00E947E0048C38FB7F894E090140173
S11317908FBF83E00E948400882351F10FB7F8942F
S11317A010921B0110921A010E94C0000E943E0177
S11317B083E00E9486040E94BE000FBF0FB7F89416
S11317C010924F0110924E010E94D8040E94BE0054
S11317D00E943A010FBF10921601109215010E9447
S11317E03801DD980E94360182E00E94E80103C0BE
S11317F082E00E947E0000917501109176010E94A2
S113180018038091820490918304009709F004C323
S11318108FEF80930901C8016E2DE9C20FB7F894C8
S113182080918A04882309F099C081E080938A0416
S113183080911501909116018430910521F481E085
S11318400E949B078BC085E00E94E80187C08FB788
S1131850F89410928A048FBFDFC28FB7F8949091E6
S113186017019923C1F78FBF01E0869B00E08091A7
S11318706D0190916E019817E1F00817D1F484E09E
S113188090E090931601809315018FB7F89491E03E
S1131890909317018FBF8DE160E070E00E941E02FB
S11318A00E944C060E94BE000E949B0081E00E94A0
S11318B0E80100936E0186E00E94E801ADC29FB783
S11318C0F894809102019FBF823009F462C0833092
S11318D030F4882359F0813009F09EC241C083302E
S11318E009F471C0843009F097C296C00E949B002D
S11318F00FB7F894809115019091160182309105EB
S113190069F583E090E090931601809315018DE1D1
S113191068E170E00E941E0281E080936D011092E4
S11319201701869B80E080936E0186E00E94E801A7
S113193081E00E94E4048CE16FE772E00E941E02E1
S11319400E94CD050E94DD0587E166E57AE20E94EA
S11319501E0285E16FEF70E80E941E020FBF5CC299
S11319600E949B0086E00E94E4040E94CD050E9430
S1131970DD050E944C060E94BE000E949B0083E08D
S11319800E94E4040E94BE0081E00E94860485E077
S113199093CF0E949B000FB7F8940E94A500882360
S11319A011F00FBF0AC00FBF83E50E94130280E04D
S11319B00E94130280E00E9413020E94BE0082E093
S11319C00E94860429C29FB7F89480911A019FBF90
S11319D0843039F0883041F08230D9F40E94DD023D
S11319E01BC20E94CF0618C20E949B000E94F704EB
S11319F00E94BE000E94C9042FB7F89481E090E0D1
S1131A0090931B0180931A012FBF83E00E94B506B7
S1131A1003C20E94C90400C20E94CE04FDC10FB7D4
S1131A20F89480919D0190919E0110929E011092D4
S1131A309D01109287041092860410922401109242
S1131A40230110929101109290010E946B0886CF9D
S1131A500FB7F89482E0809319010E949F060FBF8C
S1131A6080910501882309F0D7C10E949D000E943E
S1131A709B0087E021CFE0912001F0912101CF016B
S1131A808896E080AF014E0D511DDA012C91221F82
S1131A902227221FDC0113962C93DA012C912F7735
S1131AA0DC0111962C93DA0111978C9180A7009197
S1131AB0200110912101C80101960E947500292F6F
S1131AC09FB7F894809153019FBF882309F468C09D
S1131AD0822F8695869590E0837090708230910570
S1131AE011F50A5F1F4FC8010E9475004FB7F894A3
S1131AF020916B0130916C014FBF8217930761F005
S1131B00C8010E94750021E030E0BFEF8F3F9B07C2
S1131B1029F020E030E002C021E030E02115310559
S1131B2009F4E5C03DC08330910509F0E0C0DE0151
S1131B305996EAEAF1E088E001900D928150E1F7CC
S1131B40DE011996FE01799688E001900D9281508C
S1131B50E1F7DE019196FE01399688E001900D923D
S1131B608150E1F7DE015196FE01B19688E00190C3
S1131B700D928150E1F7DE011196FE01719688E025
S1131B8001900D928150E1F7C8010696BE016F5F86
S1131B907F4F48E050E00E94E415009709F0A7C089
S1131BA0EE2DED3008F4A3C0009120011091210125
S1131BB0C80101960E947500492F892F8695869544
S1131BC090E09C0123703070842F829586958695D1
S1131BD0837090E08330910519F042E050E002C038
S1131BE048E050E02330310519F0E2E0F0E002C0B3
S1131BF0E8E0F0E03696E00FF11F80E090E020E0AE
S1131C0030E06191860F911D2F5F3F4F24173507F8
S1131C10C4F3D80113967C912FEF20938404AFB7BB
S1131C20F89460918404EBE2F1E020E030E040813C
S1131C3051814817590741F44281471721F46093B1
S1131C408404AFBF50C0622F2F5F3F4F33962430C0
S1131C50310569F760938404AFBF209184045FB7B2
S1131C60F8942F3F21F030911D01321721F4209177
S1131C701D0141E001C040E030E0F901EE0FFF1F1B
S1131C80E20FF31FE55DFE4F91838083728344234B
S1131C9031F080911D018F5F837080931D015FBFC0
S1131CA0EFB6F894C8010E94B001FC018081EFBE38
S1131CB0D8019B969C919B979923A9F08F3399F413
S1131CC076E0E72EF12CE00EF11EC7010E947500AC
S1131CD04FB7F89420910601309107014FBFC80116
S1131CE00E9444078C0110932101009320018FB7B7
S1131CF0F894109257018FBF0E9430088DC08091D4
S1131D005101882311F5EFB7F89460913A0170916D
S1131D103B0180913C0190913D012091A0013091C3
S1131D20A1014091A2015091A301620F731F841F6E
S1131D30951FEFBF2091250430912604409127047C
S1131D405091280400E00E9409040E941E032EC042
S1131D500E941E032FB7F89410928F012FBF209179
S1131D609C0121FF59C0209194013091950140912B
S1131D709601509197017B018C01E21AF30A040B3E
S1131D80150B209198013091990140919A0150913D
S1131D909B012E193F09400B510B2F3FEFEF3E07DC
S1131DA0EFEF4E07EFE75E0789F536C00E94480360
S1131DB033C001E00E9409042FC080916101909119
S1131DC00901891749F180930901882399F48091C5
S1131DD01E0190911F010E941E0A682F8823E1F0C2
S1131DE08FEF8093090180911E0190911F010E9441
S1131DF01D0712C08FEF809309010EC09FB7F8949E
S1131E008BB324E082278BBB9FBF06C01216130638
S1131E101406150674F2CACFA8960FB6F894DEBF5E
S1131E200FBECDBFCF91DF911F910F91FF90EF9027
S1131E30DF90CF90BF90AF909F9008950E945F0174
S1131E408F3F21F00E94A70A81E0089580E0089561
S1131E508FB7F89408958FBF08950F931F93DF935E
S1131E60CF93CDB7DEB728970FB6F894DEBF0FBE79
S1131E70CDBF1FB7F89480E491E06FEF70E04EE0BF
S1131E8050E00E94F1158FEF80937E0480938B04C1
S1131E9081E08EBD88E080BF83E083BF8CB59DB5B3
S1131EA04AE701C0C9012CB53DB52817390708F424
S1131EB041504423B9F782B792B79817E9F32CB588
S1131EC03DB582B792B79817E9F38CB59DB54096A6
S1131ED0821B930B25E0969587952A95E1F79093BD
S1131EE0800480937F0413BE83B78EBD8EB580BFFC
S1131EF012BE1DBC1CBC8FEF86BF86B780937C00CE
S1131F0080B790E0877090700097D1F7D29AD19AF9
S1131F10D09ADA9AD99AD89A15BA8FEF84BBD49802
S1131F20DC981DBC1CBC87B7846087BF8EB5887FD6
S1131F3084608EBD0E941E0F8823E1F70FEF00938B
S1131F4055018FEF9FEF90932C0180932B011092FA
S1131F502D0190932F0180932E01109230019093C4
S1131F6032018093310110923301909335018093B3
S1131F703401109236010E94E2008093240480917F
S1131F800001909101010196A0E0B0E080935D0111
S1131F9090935E01A0935F01B093600180B7886065
S1131FA080BF8BE083BF86EE81BF87B7826087BF27
S1131FB00E94850389E494E0909321018093200199
S1131FC08E980E949D008C98009366011092A40143
S1131FD01092A5011092A6011092A7010E949D00E3
S1131FE0D69AD59A2FB7F89480910601909107015B
S1131FF02FBF90936C0180936B010E94420129834F
S11320003A834B835C836D837E838F839887AAEAAC
S1132010B1E0FE01319688E001900D928150E1F724
S11320208091080180935801109259018FE18093A7
S11320309F018AE1809322040E94420129833A830A
S11320404B835C836D837E838F839887AAEAB1E098
S1132050FE01319688E001900D928150E1F7E2EBA8
S1132060F1E0DF0118978C9192919D93808381E038
S1132070EE3AF807C1F710925301109285041092BA
S11320805A011092A9010E941E0F8823E1F71FBF75
S11320907894E7E7F1E080E090E044E350E0849F47
S11320A09001859F300D949F300D11242E543E4F86
S11320B02193319301968C30910589F710928D0408
S11320C01092220110922A0181E0809339010E942A
S11320D08B078823C9F42FB7F89480911501909148
S11320E01601009711F02FBF18C081E090E0909383
S11320F01601809315012FBFDD9A64E170E080E042
S113210090E00E94930509C082E00E948400882325
S113211009F055C081E00E9484001FB7F89446C0BE
S113212087B7887BA1F480917D008B7F81F46E99C1
S11321300EC09AB180919A00892B887141F48091E4
S1132140740082FD04C0379B04C021E003C020E07A
S113215001C025E087B790E083709070009779F014
S113216080B790E0877090700097D1F781B792B7ED
S1132170891B8C3030F082B7853F28F002C0E5E03F
S113218003C0E2E001C0E3E085B72E1708F4E22FB4
S1132190F0E0E457FF4FE491837C80628E2B85BF8F
S11321A078948895F89485B78F7D85BF0E945F01E8
S11321B08F3F09F4B5CF1FBF0E94A70AAECF10927C
S11321C03901ABCF1F920F920FB60F920BB60F923D
S11321D011242F933F934F935F936F937F938F9328
S11321E09F93AF93BF93EF93FF930E94750121B721
S11321F030E02F5F3F4F40E050E080912601909106
S11322002701A0912801B0912901820F931FA41FD7
S1132210B51F8093260190932701A0932801B093C2
S1132220290178940E948503FF91EF91BF91AF91AA
S11322309F918F917F916F915F914F913F912F91DA
S11322400F900BBE0F900FBE0F901F9018951F920A
S11322500F920FB60F920BB60F9211242F933F9348
S11322604F935F936F937F938F939F93AF93BF939A
S1132270EF93FF930E947501FF91EF91BF91AF918E
S11322809F918F917F916F915F914F913F912F918A
S11322900F900BBE0F900FBE0F901F90189578945F
S11322A01F920F920FB60F920BB60F9211241F9329
S11322B02F933F934F935F936F937F938F939F934A
S11322C0AF93BF93EF93FF930E94C0001FB7F8949E
S11322D08091620190916301A0916401B0916501C4
S11322E00097A105B10509F051C080911A019091A0
S11322F01B018530910561F18630910538F48330F6
S1132300910559F08430910561F519C08730910524
S1132310E9F08830910529F512C0869B0DC084E050
S113232090E090931B0180931A0167E070E080E0D5
S113233090E00E94930515C00E94B70512C00E9448
S1132340110A882371F40E94CF060BC080E007C0F5
S11323500E94F7040E949B060E94C90487E00E9421
S1132360BE0680911501909116018130910581F48A
S113237082E090E090931601809315010E94380149
S11323800E94360180E00E949B0702C00E9405055E
S11323901FBFFF91EF91BF91AF919F918F917F915B
S11323A06F915F914F913F912F911F910F900BBEB1
S11323B00F900FBE0F901F90189578941F920F9254
S11323C00FB60F9211240F900FBE0F901F90189507
S11323D078941F920F920FB60F9211240F900FBE94
S11323E00F901F90189578941F920F920FB60F922A
S11323F00BB60F9211246F927F928F929F92AF929D
S1132400BF92CF92DF92EF92FF920F931F932F937D
S11324103F934F935F936F937F938F939F93AF9368
S1132420BF93EF93FF93DF93CF930F92CDB7DEB7B4
S1132430C6B4D7B4BFB6F8940E94C4009B012C194B
S11324403D0940E050E07B018C01E21AF30A040BE1
S1132450150B80911A0190911B018530910529F08B
S11324608630910509F080C05DC086E090E09093CD
S11324701B0180931A0181E08093560110921C0184
S113248080E00E94800680915B0190915C018E96B1
S1132490B801A7010E946A00E0915B01F0915C0120
S11324A085A5882351F1208125503F01620E711CBE
S11324B0C30129830E947B01AB01BC014E195F0952
S11324C0600B710BC3010E946A000E949B0080E0B4
S11324D090E02981622FA30124E00E940C060E944F
S11324E0BE00C3010E947B01AB01BC014E0D5F1D08
S11324F0601F711FC3010E946A0080915B0190916B
S11325005C0101960E94750085FF03C081E0809301
S11325103F010E94C9040E94C0000E94A6018823B2
S113252009F07BC0109256010E949B0680915B01CA
S113253090915C0101960E94750085FF0DC087E0B3
S113254090E090931B0180931A0160E071E080E0B9
S113255090E00E94930503C080E00E94BE060E94A2
S1132560A601882309F459C080911C01882379F5B8
S113257080915601882359F581E08093560180E0CB
S11325800E9480060E94A601A82E80917D048830B6
S113259090F4E0918104E80FE770F0E0EE0FFF1F84
S11325A0EE0FFF1FE75DFB4FE082F182028313838E
S11325B08F5F80937D0481E080931C01D09272012F
S11325C0C09271010E94A601882311F026C0AA249A
S11325D080915601813009F5109256010E949B06A4
S11325E010921C01AA20C9F480917101909172018A
S11325F0C81AD90A2AE0C216D10478F480917D045D
S1132600882319F0815080937D0480915B0190911F
S11326105C01009711F00E94FB04BFBE0F90CF91A4
S1132620DF91FF91EF91BF91AF919F918F917F9136
S11326306F915F914F913F912F911F910F91FF9057
S1132640EF90DF90CF90BF90AF909F908F907F904E
S11326506F900F900BBE0F900FBE0F901F901895A8
S113266078941F920F920FB60F9211242F938F9389
S11326709F932FB7F89480919201909193010196C2
S113268090939301809392012FBF9F918F912F91EB
S11326900F900FBE0F901F9018951F920F920FB6B8
S11326A00F9211240F900FBE0F901F9018951F9238
S11326B00F920FB60F9211240F900FBE0F901F9020
S11326C018951F920F920FB60F9211240F900FBE00
S11326D00F901F9018951F920F920FB60F9211240E
S11326E00F900FBE0F901F9018951F920F920FB668
S11326F00F9211240F900FBE0F901F9018951F92E8
S11327000F920FB60F9211240F900FBE0F901F90CF
S113271018951F920F920FB60F920BB60F921124B9
S11327202F933F934F935F936F937F938F939F93D5
S1132730AF93BF93EF93FF9380914E0190914F011C
S11327408130910549F482E090E090934F018093A9
S11327504E010E94170805C0809154018F5F809339
S11327605401FF91EF91BF91AF919F918F917F9110
S11327706F915F914F913F912F910F900BBE0F90EE
S11327800FBE0F901F9018951F920F920FB60F92C5
S113279011240F900FBE0F901F9018951F920F9247
S11327A00FB60F920BB60F9211242F933F934F93B2
S11327B05F936F937F938F939F93AF93BF93EF93A5
S11327C0FF932FB180919D0190919E01009739F064
S11327D0E0919001F0919101E80FF91F208380911D
S11327E090019091910101969093910180939001B1
S11327F080E00E94AA012091900130919101809182
S11328002301909124012817390718F40E943D02EE
S113281017C080919D0190919E0110929E0110928B
S11328209D01109287041092860410922401109244
S1132830230110929101109290012FB10E946B0814
S1132840FF91EF91BF91AF919F918F917F916F9184
S11328505F914F913F912F910F900BBE0F900FBE40
S11328600F901F901895ACE2B0E0E9E3F4E10C940A
S1132870AD1529833A834B835C836D837E838F8379
S11328809887A986BA86CB86DC86ED86FE860F8776
S1132890188B69807A808B809C8069A27AA28BA233
S11328A09CA2840173018FEF9FEFA0E0B0E0E822C7
S11328B0F9220A231B2314014424552469847A84AD
S11328C08B849C846DA27EA28FA298A6640153017E
S11328D0A822B922CA22DB22340188249924C60101
S11328E0B501A80197010E948E1569A77AA78BA745
S11328F09CA7C401B3010E948E157B018C01C60103
S1132900B501A20191010E948E155B016C01C40105
S1132910B3010E948E159B01AC01EA0CFB1C0C1D3B
S11329201D1D69A47AA48BA49CA4C401AA27BB2757
S1132930E80EF91E0A1F1B1FEA14FB040C051D05F3
S113294020F4205030404F4F5F4FC801AA27BB27C7
S1132950820F931FA41FB51F8D8F9E8FAF8FB8A3B7
S11329608701FF24EE2429A53AA54BA55CA5407058
S11329705070E20EF31E041F151FE98EFA8E0B8FA2
S11329801C8FDE2CAA8CCB8C6C8C8D8B8E8D8E8BBD
S11329908F8D8F8B88A1888F2D853E854F85588993
S11329A069A17AA18BA19CA10E948E157B018C0147
S11329B02D813E814F8158856DA17EA18FA198A55F
S11329C00E948E15E60EF71E081F191F6D897E8959
S11329D08F89988D6E0D7F1D801F911F6D8B7E8B4F
S11329E08F8B988F7E892D2D3A2D4C2D562D8F89C6
S11329F0988DAC96E2E10C94C9150F93DF93CF93B5
S1132A00CDB7DEB760970FB6F894DEBF0FBECDBF6B
S1132A10002309F459C029833A834B835C836D8373
S1132A207E838F839887E0E2E01B2D813E814F8176
S1132A3058851E16BCF01D861E861F86188A8E2F8A
S1132A40992787FD9095909581959F4F04C0569541
S1132A504795379527958A95D2F729873A874B87E3
S1132A605C872AC0CA01B901002E04C096958795D7
S1132A70779567950A94D2F76D877E878F87988BB1
S1132A80DA01C90104C0880F991FAA1FBB1FEA9568
S1132A90D2F729813A814B815C8104C056954795D0
S1132AA0379527950A95D2F7822B932BA42BB52B18
S1132AB089879A87AB87BC8729853A854B855C854E
S1132AC06D857E858F85988960960FB6F894DEBFF4
S1132AD00FBECDBFCF91DF910F910895991B79E07F
S1132AE004C0991F961708F0961B881F7A95C9F79A
S1132AF080950895AA1BBB1B51E107C0AA1FBB1FE9
S1132B00A617B70710F0A61BB70B881F991F5A9575
S1132B10A9F780959095BC01CD010895629FD001DD
S1132B20739FF001829FE00DF11D649FE00DF11D84
S1132B30929FF00D839FF00D749FF00D659FF00D33
S1132B409927729FB00DE11DF91F639FB00DE11D20
S1132B50F91FBD01CF01112408952F923F924F9286
S1132B605F926F927F928F929F92AF92BF92CF9219
S1132B70DF92EF92FF920F931F93CF93DF93CDB722
S1132B80DEB7CA1BDB0B0FB6F894DEBF0FBECDBF9A
S1132B9009942A88398848885F846E847D848C846B
S1132BA09B84AA84B984C884DF80EE80FD800C8174
S1132BB01B81AA81B981CE0FD11D0FB6F894DEBF57
S1132BC00FBECDBFED010895FB01DC0104C08D9162
S1132BD00190801921F441505040C8F7881B990B8B
S1132BE00895DC0101C06D9341505040E0F7089511
S1072BF0F894FFCF83
S1132BF40100FFFFFFFF010022FFFFFF00009CFF15
S1072C0402000800BE
S9030000FC
